{
  "_format": "hh-sol-artifact-1",
  "contractName": "EpicGame",
  "sourceName": "contracts/EpicGame.sol",
  "abi": [
    {
      "inputs": [
        {
          "internalType": "string[]",
          "name": "CharNames",
          "type": "string[]"
        },
        {
          "internalType": "string[]",
          "name": "CharImageURIs",
          "type": "string[]"
        },
        {
          "internalType": "uint256[]",
          "name": "CharHp",
          "type": "uint256[]"
        },
        {
          "internalType": "uint256[]",
          "name": "CharAttDmg",
          "type": "uint256[]"
        },
        {
          "internalType": "uint256[]",
          "name": "CharCC",
          "type": "uint256[]"
        },
        {
          "internalType": "uint256[]",
          "name": "CharDef",
          "type": "uint256[]"
        },
        {
          "internalType": "uint256[]",
          "name": "CharMana",
          "type": "uint256[]"
        },
        {
          "internalType": "string",
          "name": "bossName",
          "type": "string"
        },
        {
          "internalType": "string",
          "name": "bossImageURI",
          "type": "string"
        },
        {
          "internalType": "uint256",
          "name": "bossHp",
          "type": "uint256"
        },
        {
          "internalType": "uint256",
          "name": "bossAttackDamage",
          "type": "uint256"
        }
      ],
      "stateMutability": "nonpayable",
      "type": "constructor"
    },
    {
      "anonymous": false,
      "inputs": [
        {
          "indexed": true,
          "internalType": "address",
          "name": "owner",
          "type": "address"
        },
        {
          "indexed": true,
          "internalType": "address",
          "name": "approved",
          "type": "address"
        },
        {
          "indexed": true,
          "internalType": "uint256",
          "name": "tokenId",
          "type": "uint256"
        }
      ],
      "name": "Approval",
      "type": "event"
    },
    {
      "anonymous": false,
      "inputs": [
        {
          "indexed": true,
          "internalType": "address",
          "name": "owner",
          "type": "address"
        },
        {
          "indexed": true,
          "internalType": "address",
          "name": "operator",
          "type": "address"
        },
        {
          "indexed": false,
          "internalType": "bool",
          "name": "approved",
          "type": "bool"
        }
      ],
      "name": "ApprovalForAll",
      "type": "event"
    },
    {
      "anonymous": false,
      "inputs": [
        {
          "indexed": false,
          "internalType": "uint256",
          "name": "newBossHp",
          "type": "uint256"
        },
        {
          "indexed": false,
          "internalType": "uint256",
          "name": "newPlayerHp",
          "type": "uint256"
        }
      ],
      "name": "AttackComplete",
      "type": "event"
    },
    {
      "anonymous": false,
      "inputs": [
        {
          "indexed": false,
          "internalType": "address",
          "name": "sender",
          "type": "address"
        },
        {
          "indexed": false,
          "internalType": "uint256",
          "name": "tokenId",
          "type": "uint256"
        },
        {
          "indexed": false,
          "internalType": "uint256",
          "name": "CharIndex",
          "type": "uint256"
        }
      ],
      "name": "CharNFTMinted",
      "type": "event"
    },
    {
      "anonymous": false,
      "inputs": [
        {
          "indexed": true,
          "internalType": "address",
          "name": "from",
          "type": "address"
        },
        {
          "indexed": true,
          "internalType": "address",
          "name": "to",
          "type": "address"
        },
        {
          "indexed": true,
          "internalType": "uint256",
          "name": "tokenId",
          "type": "uint256"
        }
      ],
      "name": "Transfer",
      "type": "event"
    },
    {
      "inputs": [
        {
          "internalType": "uint256",
          "name": "",
          "type": "uint256"
        }
      ],
      "name": "NFTHolderAttributes",
      "outputs": [
        {
          "internalType": "uint256",
          "name": "CharIndex",
          "type": "uint256"
        },
        {
          "internalType": "string",
          "name": "name",
          "type": "string"
        },
        {
          "internalType": "string",
          "name": "imageURI",
          "type": "string"
        },
        {
          "internalType": "uint256",
          "name": "hp",
          "type": "uint256"
        },
        {
          "internalType": "uint256",
          "name": "maxHp",
          "type": "uint256"
        },
        {
          "internalType": "uint256",
          "name": "attackDamage",
          "type": "uint256"
        },
        {
          "internalType": "uint256",
          "name": "critChance",
          "type": "uint256"
        },
        {
          "internalType": "uint256",
          "name": "defense",
          "type": "uint256"
        },
        {
          "internalType": "uint256",
          "name": "mana",
          "type": "uint256"
        }
      ],
      "stateMutability": "view",
      "type": "function"
    },
    {
      "inputs": [
        {
          "internalType": "address",
          "name": "",
          "type": "address"
        }
      ],
      "name": "NFTHolders",
      "outputs": [
        {
          "internalType": "uint256",
          "name": "",
          "type": "uint256"
        }
      ],
      "stateMutability": "view",
      "type": "function"
    },
    {
      "inputs": [
        {
          "internalType": "address",
          "name": "to",
          "type": "address"
        },
        {
          "internalType": "uint256",
          "name": "tokenId",
          "type": "uint256"
        }
      ],
      "name": "approve",
      "outputs": [],
      "stateMutability": "nonpayable",
      "type": "function"
    },
    {
      "inputs": [],
      "name": "attackBoss",
      "outputs": [],
      "stateMutability": "nonpayable",
      "type": "function"
    },
    {
      "inputs": [
        {
          "internalType": "address",
          "name": "owner",
          "type": "address"
        }
      ],
      "name": "balanceOf",
      "outputs": [
        {
          "internalType": "uint256",
          "name": "",
          "type": "uint256"
        }
      ],
      "stateMutability": "view",
      "type": "function"
    },
    {
      "inputs": [],
      "name": "bigBoss",
      "outputs": [
        {
          "internalType": "string",
          "name": "name",
          "type": "string"
        },
        {
          "internalType": "string",
          "name": "imageURI",
          "type": "string"
        },
        {
          "internalType": "uint256",
          "name": "hp",
          "type": "uint256"
        },
        {
          "internalType": "uint256",
          "name": "maxHp",
          "type": "uint256"
        },
        {
          "internalType": "uint256",
          "name": "attackDamage",
          "type": "uint256"
        }
      ],
      "stateMutability": "view",
      "type": "function"
    },
    {
      "inputs": [],
      "name": "checkIfUserHasNFT",
      "outputs": [
        {
          "components": [
            {
              "internalType": "uint256",
              "name": "CharIndex",
              "type": "uint256"
            },
            {
              "internalType": "string",
              "name": "name",
              "type": "string"
            },
            {
              "internalType": "string",
              "name": "imageURI",
              "type": "string"
            },
            {
              "internalType": "uint256",
              "name": "hp",
              "type": "uint256"
            },
            {
              "internalType": "uint256",
              "name": "maxHp",
              "type": "uint256"
            },
            {
              "internalType": "uint256",
              "name": "attackDamage",
              "type": "uint256"
            },
            {
              "internalType": "uint256",
              "name": "critChance",
              "type": "uint256"
            },
            {
              "internalType": "uint256",
              "name": "defense",
              "type": "uint256"
            },
            {
              "internalType": "uint256",
              "name": "mana",
              "type": "uint256"
            }
          ],
          "internalType": "struct EpicGame.CharAttributes",
          "name": "",
          "type": "tuple"
        }
      ],
      "stateMutability": "view",
      "type": "function"
    },
    {
      "inputs": [],
      "name": "getAllDefaultChars",
      "outputs": [
        {
          "components": [
            {
              "internalType": "uint256",
              "name": "CharIndex",
              "type": "uint256"
            },
            {
              "internalType": "string",
              "name": "name",
              "type": "string"
            },
            {
              "internalType": "string",
              "name": "imageURI",
              "type": "string"
            },
            {
              "internalType": "uint256",
              "name": "hp",
              "type": "uint256"
            },
            {
              "internalType": "uint256",
              "name": "maxHp",
              "type": "uint256"
            },
            {
              "internalType": "uint256",
              "name": "attackDamage",
              "type": "uint256"
            },
            {
              "internalType": "uint256",
              "name": "critChance",
              "type": "uint256"
            },
            {
              "internalType": "uint256",
              "name": "defense",
              "type": "uint256"
            },
            {
              "internalType": "uint256",
              "name": "mana",
              "type": "uint256"
            }
          ],
          "internalType": "struct EpicGame.CharAttributes[]",
          "name": "",
          "type": "tuple[]"
        }
      ],
      "stateMutability": "view",
      "type": "function"
    },
    {
      "inputs": [
        {
          "internalType": "uint256",
          "name": "tokenId",
          "type": "uint256"
        }
      ],
      "name": "getApproved",
      "outputs": [
        {
          "internalType": "address",
          "name": "",
          "type": "address"
        }
      ],
      "stateMutability": "view",
      "type": "function"
    },
    {
      "inputs": [],
      "name": "getBigBoss",
      "outputs": [
        {
          "components": [
            {
              "internalType": "string",
              "name": "name",
              "type": "string"
            },
            {
              "internalType": "string",
              "name": "imageURI",
              "type": "string"
            },
            {
              "internalType": "uint256",
              "name": "hp",
              "type": "uint256"
            },
            {
              "internalType": "uint256",
              "name": "maxHp",
              "type": "uint256"
            },
            {
              "internalType": "uint256",
              "name": "attackDamage",
              "type": "uint256"
            }
          ],
          "internalType": "struct EpicGame.BigBoss",
          "name": "",
          "type": "tuple"
        }
      ],
      "stateMutability": "view",
      "type": "function"
    },
    {
      "inputs": [
        {
          "internalType": "address",
          "name": "owner",
          "type": "address"
        },
        {
          "internalType": "address",
          "name": "operator",
          "type": "address"
        }
      ],
      "name": "isApprovedForAll",
      "outputs": [
        {
          "internalType": "bool",
          "name": "",
          "type": "bool"
        }
      ],
      "stateMutability": "view",
      "type": "function"
    },
    {
      "inputs": [
        {
          "internalType": "uint256",
          "name": "_CharIndex",
          "type": "uint256"
        }
      ],
      "name": "mintCharNFT",
      "outputs": [],
      "stateMutability": "nonpayable",
      "type": "function"
    },
    {
      "inputs": [],
      "name": "name",
      "outputs": [
        {
          "internalType": "string",
          "name": "",
          "type": "string"
        }
      ],
      "stateMutability": "view",
      "type": "function"
    },
    {
      "inputs": [
        {
          "internalType": "uint256",
          "name": "tokenId",
          "type": "uint256"
        }
      ],
      "name": "ownerOf",
      "outputs": [
        {
          "internalType": "address",
          "name": "",
          "type": "address"
        }
      ],
      "stateMutability": "view",
      "type": "function"
    },
    {
      "inputs": [
        {
          "internalType": "address",
          "name": "from",
          "type": "address"
        },
        {
          "internalType": "address",
          "name": "to",
          "type": "address"
        },
        {
          "internalType": "uint256",
          "name": "tokenId",
          "type": "uint256"
        }
      ],
      "name": "safeTransferFrom",
      "outputs": [],
      "stateMutability": "nonpayable",
      "type": "function"
    },
    {
      "inputs": [
        {
          "internalType": "address",
          "name": "from",
          "type": "address"
        },
        {
          "internalType": "address",
          "name": "to",
          "type": "address"
        },
        {
          "internalType": "uint256",
          "name": "tokenId",
          "type": "uint256"
        },
        {
          "internalType": "bytes",
          "name": "_data",
          "type": "bytes"
        }
      ],
      "name": "safeTransferFrom",
      "outputs": [],
      "stateMutability": "nonpayable",
      "type": "function"
    },
    {
      "inputs": [
        {
          "internalType": "address",
          "name": "operator",
          "type": "address"
        },
        {
          "internalType": "bool",
          "name": "approved",
          "type": "bool"
        }
      ],
      "name": "setApprovalForAll",
      "outputs": [],
      "stateMutability": "nonpayable",
      "type": "function"
    },
    {
      "inputs": [
        {
          "internalType": "bytes4",
          "name": "interfaceId",
          "type": "bytes4"
        }
      ],
      "name": "supportsInterface",
      "outputs": [
        {
          "internalType": "bool",
          "name": "",
          "type": "bool"
        }
      ],
      "stateMutability": "view",
      "type": "function"
    },
    {
      "inputs": [],
      "name": "symbol",
      "outputs": [
        {
          "internalType": "string",
          "name": "",
          "type": "string"
        }
      ],
      "stateMutability": "view",
      "type": "function"
    },
    {
      "inputs": [
        {
          "internalType": "uint256",
          "name": "_tokenId",
          "type": "uint256"
        }
      ],
      "name": "tokenURI",
      "outputs": [
        {
          "internalType": "string",
          "name": "",
          "type": "string"
        }
      ],
      "stateMutability": "view",
      "type": "function"
    },
    {
      "inputs": [
        {
          "internalType": "address",
          "name": "from",
          "type": "address"
        },
        {
          "internalType": "address",
          "name": "to",
          "type": "address"
        },
        {
          "internalType": "uint256",
          "name": "tokenId",
          "type": "uint256"
        }
      ],
      "name": "transferFrom",
      "outputs": [],
      "stateMutability": "nonpayable",
      "type": "function"
    }
  ],
  "bytecode": "0x60806040523480156200001157600080fd5b506040516200621238038062006212833981810160405281019062000037919062000e71565b6040518060400160405280600b81526020017f54686520576974636865720000000000000000000000000000000000000000008152506040518060400160405280600981526020017f57696c642048756e7400000000000000000000000000000000000000000000008152508160009080519060200190620000bb92919062000bd9565b508060019080519060200190620000d492919062000bd9565b5050506040518060a0016040528085815260200184815260200183815260200183815260200182815250600660008201518160000190805190602001906200011e92919062000bd9565b5060208201518160010190805190602001906200013d92919062000bd9565b50604082015181600201556060820151816003015560808201518160040155905050620002c06040518060600160405280603381526020016200617160339139600660000180546200018f9062001384565b80601f0160208091040260200160405190810160405280929190818152602001828054620001bd9062001384565b80156200020e5780601f10620001e2576101008083540402835291602001916200020e565b820191906000526020600020905b815481529060010190602001808311620001f057829003601f168201915b505050505060066001018054620002259062001384565b80601f0160208091040260200160405190810160405280929190818152602001828054620002539062001384565b8015620002a45780601f106200027857610100808354040283529160200191620002a4565b820191906000526020600020905b8154815290600101906020018083116200028657829003601f168201915b5050505050600660020154620008ed60201b62001d4a1760201c565b620003176040518060400160405280602081526020017f772f206d617820487020257320616e642061747461636b44616d6167652025738152506006600201546006600401546200099960201b62001dec1760201c565b60005b8b51811015620008c457600c6040518061012001604052808381526020018e848151811062000372577f4e487b7100000000000000000000000000000000000000000000000000000000600052603260045260246000fd5b602002602001015181526020018d8481518110620003b9577f4e487b7100000000000000000000000000000000000000000000000000000000600052603260045260246000fd5b602002602001015181526020018c848151811062000400577f4e487b7100000000000000000000000000000000000000000000000000000000600052603260045260246000fd5b602002602001015181526020018c848151811062000447577f4e487b7100000000000000000000000000000000000000000000000000000000600052603260045260246000fd5b602002602001015181526020018b84815181106200048e577f4e487b7100000000000000000000000000000000000000000000000000000000600052603260045260246000fd5b602002602001015181526020018a8481518110620004d5577f4e487b7100000000000000000000000000000000000000000000000000000000600052603260045260246000fd5b602002602001015181526020018984815181106200051c577f4e487b7100000000000000000000000000000000000000000000000000000000600052603260045260246000fd5b6020026020010151815260200188848151811062000563577f4e487b7100000000000000000000000000000000000000000000000000000000600052603260045260246000fd5b60200260200101518152509080600181540180825580915050600190039060005260206000209060090201600090919091909150600082015181600001556020820151816001019080519060200190620005bf92919062000bd9565b506040820151816002019080519060200190620005de92919062000bd9565b50606082015181600301556080820151816004015560a0820151816005015560c0820151816006015560e08201518160070155610100820151816008015550506000600c82815481106200065b577f4e487b7100000000000000000000000000000000000000000000000000000000600052603260045260246000fd5b90600052602060002090600902016040518061012001604052908160008201548152602001600182018054620006919062001384565b80601f0160208091040260200160405190810160405280929190818152602001828054620006bf9062001384565b8015620007105780601f10620006e45761010080835404028352916020019162000710565b820191906000526020600020905b815481529060010190602001808311620006f257829003601f168201915b505050505081526020016002820180546200072b9062001384565b80601f0160208091040260200160405190810160405280929190818152602001828054620007599062001384565b8015620007aa5780601f106200077e57610100808354040283529160200191620007aa565b820191906000526020600020905b8154815290600101906020018083116200078c57829003601f168201915b50505050508152602001600382015481526020016004820154815260200160058201548152602001600682015481526020016007820154815260200160088201548152505090506200082f6040518060600160405280602a815260200162006147602a913982602001518360600151846040015162000a4260201b62001e8b1760201c565b6200086d6040518060600160405280603e8152602001620061d4603e913982602001518360a001518460c0015162000aee60201b62001f2d1760201c565b620008ac604051806060016040528060308152602001620061a46030913982602001518360e0015184610100015162000aee60201b62001f2d1760201c565b50600181620008bc9190620012e7565b90506200031a565b50620008dc600b62000b9a60201b62001fcf1760201c565b5050505050505050505050620014a8565b62000993848484846040516024016200090a9493929190620010ab565b6040516020818303038152906040527f9fd009f5000000000000000000000000000000000000000000000000000000007bffffffffffffffffffffffffffffffffffffffffffffffffffffffff19166020820180517bffffffffffffffffffffffffffffffffffffffffffffffffffffffff838183161783525050505062000bb060201b60201c565b50505050565b62000a3d838383604051602401620009b493929190620011ca565b6040516020818303038152906040527f969cdd03000000000000000000000000000000000000000000000000000000007bffffffffffffffffffffffffffffffffffffffffffffffffffffffff19166020820180517bffffffffffffffffffffffffffffffffffffffffffffffffffffffff838183161783525050505062000bb060201b60201c565b505050565b62000ae88484848460405160240162000a5f94939291906200110d565b6040516020818303038152906040527f8d142cdd000000000000000000000000000000000000000000000000000000007bffffffffffffffffffffffffffffffffffffffffffffffffffffffff19166020820180517bffffffffffffffffffffffffffffffffffffffffffffffffffffffff838183161783525050505062000bb060201b60201c565b50505050565b62000b948484848460405160240162000b0b94939291906200116f565b6040516020818303038152906040527fd5cf17d0000000000000000000000000000000000000000000000000000000007bffffffffffffffffffffffffffffffffffffffffffffffffffffffff19166020820180517bffffffffffffffffffffffffffffffffffffffffffffffffffffffff838183161783525050505062000bb060201b60201c565b50505050565b6001816000016000828254019250508190555050565b60008151905060006a636f6e736f6c652e6c6f679050602083016000808483855afa5050505050565b82805462000be79062001384565b90600052602060002090601f01602090048101928262000c0b576000855562000c57565b82601f1062000c2657805160ff191683800117855562000c57565b8280016001018555821562000c57579182015b8281111562000c5657825182559160200191906001019062000c39565b5b50905062000c66919062000c6a565b5090565b5b8082111562000c8557600081600090555060010162000c6b565b5090565b600062000ca062000c9a8462001237565b6200120e565b9050808382526020820190508285602086028201111562000cc057600080fd5b60005b8581101562000d0f57815167ffffffffffffffff81111562000ce457600080fd5b80860162000cf3898262000e2d565b8552602085019450602084019350505060018101905062000cc3565b5050509392505050565b600062000d3062000d2a8462001266565b6200120e565b9050808382526020820190508285602086028201111562000d5057600080fd5b60005b8581101562000d84578162000d69888262000e5a565b84526020840193506020830192505060018101905062000d53565b5050509392505050565b600062000da562000d9f8462001295565b6200120e565b90508281526020810184848401111562000dbe57600080fd5b62000dcb8482856200134e565b509392505050565b600082601f83011262000de557600080fd5b815162000df784826020860162000c89565b91505092915050565b600082601f83011262000e1257600080fd5b815162000e2484826020860162000d19565b91505092915050565b600082601f83011262000e3f57600080fd5b815162000e5184826020860162000d8e565b91505092915050565b60008151905062000e6b816200148e565b92915050565b60008060008060008060008060008060006101608c8e03121562000e9457600080fd5b60008c015167ffffffffffffffff81111562000eaf57600080fd5b62000ebd8e828f0162000dd3565b9b505060208c015167ffffffffffffffff81111562000edb57600080fd5b62000ee98e828f0162000dd3565b9a505060408c015167ffffffffffffffff81111562000f0757600080fd5b62000f158e828f0162000e00565b99505060608c015167ffffffffffffffff81111562000f3357600080fd5b62000f418e828f0162000e00565b98505060808c015167ffffffffffffffff81111562000f5f57600080fd5b62000f6d8e828f0162000e00565b97505060a08c015167ffffffffffffffff81111562000f8b57600080fd5b62000f998e828f0162000e00565b96505060c08c015167ffffffffffffffff81111562000fb757600080fd5b62000fc58e828f0162000e00565b95505060e08c015167ffffffffffffffff81111562000fe357600080fd5b62000ff18e828f0162000e2d565b9450506101008c015167ffffffffffffffff8111156200101057600080fd5b6200101e8e828f0162000e2d565b935050610120620010328e828f0162000e5a565b925050610140620010468e828f0162000e5a565b9150509295989b509295989b9093969950565b60006200106682620012cb565b620010728185620012d6565b9350620010848185602086016200134e565b6200108f816200147d565b840191505092915050565b620010a58162001344565b82525050565b60006080820190508181036000830152620010c7818762001059565b90508181036020830152620010dd818662001059565b90508181036040830152620010f3818562001059565b90506200110460608301846200109a565b95945050505050565b6000608082019050818103600083015262001129818762001059565b905081810360208301526200113f818662001059565b90506200115060408301856200109a565b818103606083015262001164818462001059565b905095945050505050565b600060808201905081810360008301526200118b818762001059565b90508181036020830152620011a1818662001059565b9050620011b260408301856200109a565b620011c160608301846200109a565b95945050505050565b60006060820190508181036000830152620011e6818662001059565b9050620011f760208301856200109a565b6200120660408301846200109a565b949350505050565b60006200121a6200122d565b9050620012288282620013ba565b919050565b6000604051905090565b600067ffffffffffffffff8211156200125557620012546200144e565b5b602082029050602081019050919050565b600067ffffffffffffffff8211156200128457620012836200144e565b5b602082029050602081019050919050565b600067ffffffffffffffff821115620012b357620012b26200144e565b5b620012be826200147d565b9050602081019050919050565b600081519050919050565b600082825260208201905092915050565b6000620012f48262001344565b9150620013018362001344565b9250827fffffffffffffffffffffffffffffffffffffffffffffffffffffffffffffffff03821115620013395762001338620013f0565b5b828201905092915050565b6000819050919050565b60005b838110156200136e57808201518184015260208101905062001351565b838111156200137e576000848401525b50505050565b600060028204905060018216806200139d57607f821691505b60208210811415620013b457620013b36200141f565b5b50919050565b620013c5826200147d565b810181811067ffffffffffffffff82111715620013e757620013e66200144e565b5b80604052505050565b7f4e487b7100000000000000000000000000000000000000000000000000000000600052601160045260246000fd5b7f4e487b7100000000000000000000000000000000000000000000000000000000600052602260045260246000fd5b7f4e487b7100000000000000000000000000000000000000000000000000000000600052604160045260246000fd5b6000601f19601f8301169050919050565b620014998162001344565b8114620014a557600080fd5b50565b614c8f80620014b86000396000f3fe608060405234801561001057600080fd5b50600436106101375760003560e01c80637ba8b8d6116100b8578063c87b56dd1161007c578063c87b56dd14610350578063c8cf27f414610380578063d4f24c5b1461039e578063d85aeb3d146103a8578063e985e9c5146103c6578063f3c17dbd146103f657610137565b80637ba8b8d6146102bc57806395d89b41146102d8578063a22cb465146102f6578063a9c3267914610312578063b88d4fde1461033457610137565b8063095ea7b3116100ff578063095ea7b31461020857806323b872dd1461022457806342842e0e146102405780636352211e1461025c57806370a082311461028c57610137565b806301ffc9a71461013c5780630665f9611461016c57806306fdde031461018a578063081812fc146101a857806308357f05146101d8575b600080fd5b610156600480360381019061015191906131ad565b61042e565b6040516101639190613b3b565b60405180910390f35b610174610510565b6040516101819190613efe565b60405180910390f35b61019261066c565b60405161019f9190613b56565b60405180910390f35b6101c260048036038101906101bd91906131ff565b6106fe565b6040516101cf9190613a7b565b60405180910390f35b6101f260048036038101906101ed9190613006565b610783565b6040516101ff9190613f42565b60405180910390f35b610222600480360381019061021d9190613171565b61079b565b005b61023e6004803603810190610239919061306b565b6108b3565b005b61025a6004803603810190610255919061306b565b610913565b005b610276600480360381019061027191906131ff565b610933565b6040516102839190613a7b565b60405180910390f35b6102a660048036038101906102a19190613006565b6109e5565b6040516102b39190613f42565b60405180910390f35b6102d660048036038101906102d191906131ff565b610a9d565b005b6102e0610fa4565b6040516102ed9190613b56565b60405180910390f35b610310600480360381019061030b9190613135565b611036565b005b61031a61104c565b60405161032b959493929190613c7f565b60405180910390f35b61034e600480360381019061034991906130ba565b611180565b005b61036a600480360381019061036591906131ff565b6111e2565b6040516103779190613b56565b60405180910390f35b610388611459565b6040516103959190613f20565b60405180910390f35b6103a6611650565b005b6103b061198e565b6040516103bd9190613b19565b60405180910390f35b6103e060048036038101906103db919061302f565b611b58565b6040516103ed9190613b3b565b60405180910390f35b610410600480360381019061040b91906131ff565b611bec565b60405161042599989796959493929190613f5d565b60405180910390f35b60007f80ac58cd000000000000000000000000000000000000000000000000000000007bffffffffffffffffffffffffffffffffffffffffffffffffffffffff1916827bffffffffffffffffffffffffffffffffffffffffffffffffffffffff191614806104f957507f5b5e139f000000000000000000000000000000000000000000000000000000007bffffffffffffffffffffffffffffffffffffffffffffffffffffffff1916827bffffffffffffffffffffffffffffffffffffffffffffffffffffffff1916145b80610509575061050882611fe5565b5b9050919050565b610518612e17565b60066040518060a0016040529081600082018054610535906142cf565b80601f0160208091040260200160405190810160405280929190818152602001828054610561906142cf565b80156105ae5780601f10610583576101008083540402835291602001916105ae565b820191906000526020600020905b81548152906001019060200180831161059157829003601f168201915b505050505081526020016001820180546105c7906142cf565b80601f01602080910402602001604051908101604052809291908181526020018280546105f3906142cf565b80156106405780601f1061061557610100808354040283529160200191610640565b820191906000526020600020905b81548152906001019060200180831161062357829003601f168201915b505050505081526020016002820154815260200160038201548152602001600482015481525050905090565b60606000805461067b906142cf565b80601f01602080910402602001604051908101604052809291908181526020018280546106a7906142cf565b80156106f45780601f106106c9576101008083540402835291602001916106f4565b820191906000526020600020905b8154815290600101906020018083116106d757829003601f168201915b5050505050905090565b60006107098261204f565b610748576040517f08c379a000000000000000000000000000000000000000000000000000000000815260040161073f90613e7e565b60405180910390fd5b6004600083815260200190815260200160002060009054906101000a900473ffffffffffffffffffffffffffffffffffffffff169050919050565b600e6020528060005260406000206000915090505481565b60006107a682610933565b90508073ffffffffffffffffffffffffffffffffffffffff168373ffffffffffffffffffffffffffffffffffffffff161415610817576040517f08c379a000000000000000000000000000000000000000000000000000000000815260040161080e90613ebe565b60405180910390fd5b8073ffffffffffffffffffffffffffffffffffffffff166108366120bb565b73ffffffffffffffffffffffffffffffffffffffff16148061086557506108648161085f6120bb565b611b58565b5b6108a4576040517f08c379a000000000000000000000000000000000000000000000000000000000815260040161089b90613dfe565b60405180910390fd5b6108ae83836120c3565b505050565b6108c46108be6120bb565b8261217c565b610903576040517f08c379a00000000000000000000000000000000000000000000000000000000081526004016108fa90613ede565b60405180910390fd5b61090e83838361225a565b505050565b61092e83838360405180602001604052806000815250611180565b505050565b6000806002600084815260200190815260200160002060009054906101000a900473ffffffffffffffffffffffffffffffffffffffff169050600073ffffffffffffffffffffffffffffffffffffffff168173ffffffffffffffffffffffffffffffffffffffff1614156109dc576040517f08c379a00000000000000000000000000000000000000000000000000000000081526004016109d390613e3e565b60405180910390fd5b80915050919050565b60008073ffffffffffffffffffffffffffffffffffffffff168273ffffffffffffffffffffffffffffffffffffffff161415610a56576040517f08c379a0000000000000000000000000000000000000000000000000000000008152600401610a4d90613e1e565b60405180910390fd5b600360008373ffffffffffffffffffffffffffffffffffffffff1673ffffffffffffffffffffffffffffffffffffffff168152602001908152602001600020549050919050565b6000610aa9600b6124b6565b9050610ab533826124c4565b604051806101200160405280838152602001600c8481548110610b01577f4e487b7100000000000000000000000000000000000000000000000000000000600052603260045260246000fd5b90600052602060002090600902016001018054610b1d906142cf565b80601f0160208091040260200160405190810160405280929190818152602001828054610b49906142cf565b8015610b965780601f10610b6b57610100808354040283529160200191610b96565b820191906000526020600020905b815481529060010190602001808311610b7957829003601f168201915b50505050508152602001600c8481548110610bda577f4e487b7100000000000000000000000000000000000000000000000000000000600052603260045260246000fd5b90600052602060002090600902016002018054610bf6906142cf565b80601f0160208091040260200160405190810160405280929190818152602001828054610c22906142cf565b8015610c6f5780601f10610c4457610100808354040283529160200191610c6f565b820191906000526020600020905b815481529060010190602001808311610c5257829003601f168201915b50505050508152602001600c8481548110610cb3577f4e487b7100000000000000000000000000000000000000000000000000000000600052603260045260246000fd5b9060005260206000209060090201600301548152602001600c8481548110610d04577f4e487b7100000000000000000000000000000000000000000000000000000000600052603260045260246000fd5b9060005260206000209060090201600401548152602001600c8481548110610d55577f4e487b7100000000000000000000000000000000000000000000000000000000600052603260045260246000fd5b9060005260206000209060090201600501548152602001600c8481548110610da6577f4e487b7100000000000000000000000000000000000000000000000000000000600052603260045260246000fd5b9060005260206000209060090201600601548152602001600c8481548110610df7577f4e487b7100000000000000000000000000000000000000000000000000000000600052603260045260246000fd5b9060005260206000209060090201600701548152602001600c8481548110610e48577f4e487b7100000000000000000000000000000000000000000000000000000000600052603260045260246000fd5b906000526020600020906009020160080154815250600d6000838152602001908152602001600020600082015181600001556020820151816001019080519060200190610e96929190612e46565b506040820151816002019080519060200190610eb3929190612e46565b50606082015181600301556080820151816004015560a0820151816005015560c0820151816006015560e082015181600701556101008201518160080155905050610f176040518060600160405280602f8152602001614c2b602f91398284611dec565b80600e60003373ffffffffffffffffffffffffffffffffffffffff1673ffffffffffffffffffffffffffffffffffffffff16815260200190815260200160002081905550610f65600b611fcf565b7f4ae7bfb294c5f391d0de0943e0ae004eaca406c1a94f934c19c25a255ebae9c0338284604051610f9893929190613ae2565b60405180910390a15050565b606060018054610fb3906142cf565b80601f0160208091040260200160405190810160405280929190818152602001828054610fdf906142cf565b801561102c5780601f106110015761010080835404028352916020019161102c565b820191906000526020600020905b81548152906001019060200180831161100f57829003601f168201915b5050505050905090565b6110486110416120bb565b83836124e2565b5050565b600680600001805461105d906142cf565b80601f0160208091040260200160405190810160405280929190818152602001828054611089906142cf565b80156110d65780601f106110ab576101008083540402835291602001916110d6565b820191906000526020600020905b8154815290600101906020018083116110b957829003601f168201915b5050505050908060010180546110eb906142cf565b80601f0160208091040260200160405190810160405280929190818152602001828054611117906142cf565b80156111645780601f1061113957610100808354040283529160200191611164565b820191906000526020600020905b81548152906001019060200180831161114757829003601f168201915b5050505050908060020154908060030154908060040154905085565b61119161118b6120bb565b8361217c565b6111d0576040517f08c379a00000000000000000000000000000000000000000000000000000000081526004016111c790613ede565b60405180910390fd5b6111dc8484848461264f565b50505050565b60606000600d6000848152602001908152602001600020604051806101200160405290816000820154815260200160018201805461121f906142cf565b80601f016020809104026020016040519081016040528092919081815260200182805461124b906142cf565b80156112985780601f1061126d57610100808354040283529160200191611298565b820191906000526020600020905b81548152906001019060200180831161127b57829003601f168201915b505050505081526020016002820180546112b1906142cf565b80601f01602080910402602001604051908101604052809291908181526020018280546112dd906142cf565b801561132a5780601f106112ff5761010080835404028352916020019161132a565b820191906000526020600020905b81548152906001019060200180831161130d57829003601f168201915b5050505050815260200160038201548152602001600482015481526020016005820154815260200160068201548152602001600782015481526020016008820154815250509050600061138082606001516126ab565b9050600061139183608001516126ab565b905060006113a28460a001516126ab565b905060006113b38560c001516126ab565b905060006113c48660e001516126ab565b905060006113d68761010001516126ab565b9050600061142288602001516113eb8c6126ab565b8a604001518a8a8a8a8a8a60405160200161140e9998979695949392919061396c565b604051602081830303815290604052612858565b90506000816040516020016114379190613a59565b6040516020818303038152906040529050809950505050505050505050919050565b611461612ecc565b6000600e60003373ffffffffffffffffffffffffffffffffffffffff1673ffffffffffffffffffffffffffffffffffffffff168152602001908152602001600020549050600081111561163f57600d600082815260200190815260200160002060405180610120016040529081600082015481526020016001820180546114e7906142cf565b80601f0160208091040260200160405190810160405280929190818152602001828054611513906142cf565b80156115605780601f1061153557610100808354040283529160200191611560565b820191906000526020600020905b81548152906001019060200180831161154357829003601f168201915b50505050508152602001600282018054611579906142cf565b80601f01602080910402602001604051908101604052809291908181526020018280546115a5906142cf565b80156115f25780601f106115c7576101008083540402835291602001916115f2565b820191906000526020600020905b8154815290600101906020018083116115d557829003601f168201915b50505050508152602001600382015481526020016004820154815260200160058201548152602001600682015481526020016007820154815260200160088201548152505091505061164d565b611647612ecc565b80925050505b90565b6000600e60003373ffffffffffffffffffffffffffffffffffffffff1673ffffffffffffffffffffffffffffffffffffffff1681526020019081526020016000205490506000600d600083815260200190815260200160002090506117636040518060600160405280603f8152602001614bec603f91398260010180546116d6906142cf565b80601f0160208091040260200160405190810160405280929190818152602001828054611702906142cf565b801561174f5780601f106117245761010080835404028352916020019161174f565b820191906000526020600020905b81548152906001019060200180831161173257829003601f168201915b505050505083600301548460050154611f2d565b61183b6040518060400160405280601b81526020017f426f73732025732068617320257320487020616e642025732041440000000000815250600660000180546117ac906142cf565b80601f01602080910402602001604051908101604052809291908181526020018280546117d8906142cf565b80156118255780601f106117fa57610100808354040283529160200191611825565b820191906000526020600020905b81548152906001019060200180831161180857829003601f168201915b5050505050600660020154600660040154611f2d565b6000816003015411611882576040517f08c379a000000000000000000000000000000000000000000000000000000000815260040161187990613dde565b60405180910390fd5b6000600660020154116118ca576040517f08c379a00000000000000000000000000000000000000000000000000000000081526004016118c190613d1e565b60405180910390fd5b806005015460066002015410156118eb57600060066002018190555061190a565b806005015460066002015461190091906141e5565b6006600201819055505b6006600401548160030154101561192a5760008160030181905550611948565b600660040154816003015461193f91906141e5565b81600301819055505b7f838ab28464562786a6c4ab2311964b82fa60bd9b14aa7e856af1f3f18d41a4146006600201548260030154604051611982929190613ff8565b60405180910390a15050565b6060600c805480602002602001604051908101604052809291908181526020016000905b82821015611b4f578382906000526020600020906009020160405180610120016040529081600082015481526020016001820180546119f0906142cf565b80601f0160208091040260200160405190810160405280929190818152602001828054611a1c906142cf565b8015611a695780601f10611a3e57610100808354040283529160200191611a69565b820191906000526020600020905b815481529060010190602001808311611a4c57829003601f168201915b50505050508152602001600282018054611a82906142cf565b80601f0160208091040260200160405190810160405280929190818152602001828054611aae906142cf565b8015611afb5780601f10611ad057610100808354040283529160200191611afb565b820191906000526020600020905b815481529060010190602001808311611ade57829003601f168201915b505050505081526020016003820154815260200160048201548152602001600582015481526020016006820154815260200160078201548152602001600882015481525050815260200190600101906119b2565b50505050905090565b6000600560008473ffffffffffffffffffffffffffffffffffffffff1673ffffffffffffffffffffffffffffffffffffffff16815260200190815260200160002060008373ffffffffffffffffffffffffffffffffffffffff1673ffffffffffffffffffffffffffffffffffffffff16815260200190815260200160002060009054906101000a900460ff16905092915050565b600d602052806000526040600020600091509050806000015490806001018054611c15906142cf565b80601f0160208091040260200160405190810160405280929190818152602001828054611c41906142cf565b8015611c8e5780601f10611c6357610100808354040283529160200191611c8e565b820191906000526020600020905b815481529060010190602001808311611c7157829003601f168201915b505050505090806002018054611ca3906142cf565b80601f0160208091040260200160405190810160405280929190818152602001828054611ccf906142cf565b8015611d1c5780601f10611cf157610100808354040283529160200191611d1c565b820191906000526020600020905b815481529060010190602001808311611cff57829003601f168201915b5050505050908060030154908060040154908060050154908060060154908060070154908060080154905089565b611de684848484604051602401611d649493929190613b78565b6040516020818303038152906040527f9fd009f5000000000000000000000000000000000000000000000000000000007bffffffffffffffffffffffffffffffffffffffffffffffffffffffff19166020820180517bffffffffffffffffffffffffffffffffffffffffffffffffffffffff8381831617835250505050612a16565b50505050565b611e86838383604051602401611e0493929190613ce0565b6040516020818303038152906040527f969cdd03000000000000000000000000000000000000000000000000000000007bffffffffffffffffffffffffffffffffffffffffffffffffffffffff19166020820180517bffffffffffffffffffffffffffffffffffffffffffffffffffffffff8381831617835250505050612a16565b505050565b611f2784848484604051602401611ea59493929190613bd2565b6040516020818303038152906040527f8d142cdd000000000000000000000000000000000000000000000000000000007bffffffffffffffffffffffffffffffffffffffffffffffffffffffff19166020820180517bffffffffffffffffffffffffffffffffffffffffffffffffffffffff8381831617835250505050612a16565b50505050565b611fc984848484604051602401611f479493929190613c2c565b6040516020818303038152906040527fd5cf17d0000000000000000000000000000000000000000000000000000000007bffffffffffffffffffffffffffffffffffffffffffffffffffffffff19166020820180517bffffffffffffffffffffffffffffffffffffffffffffffffffffffff8381831617835250505050612a16565b50505050565b6001816000016000828254019250508190555050565b60007f01ffc9a7000000000000000000000000000000000000000000000000000000007bffffffffffffffffffffffffffffffffffffffffffffffffffffffff1916827bffffffffffffffffffffffffffffffffffffffffffffffffffffffff1916149050919050565b60008073ffffffffffffffffffffffffffffffffffffffff166002600084815260200190815260200160002060009054906101000a900473ffffffffffffffffffffffffffffffffffffffff1673ffffffffffffffffffffffffffffffffffffffff1614159050919050565b600033905090565b816004600083815260200190815260200160002060006101000a81548173ffffffffffffffffffffffffffffffffffffffff021916908373ffffffffffffffffffffffffffffffffffffffff160217905550808273ffffffffffffffffffffffffffffffffffffffff1661213683610933565b73ffffffffffffffffffffffffffffffffffffffff167f8c5be1e5ebec7d5bd14f71427d1e84f3dd0314c0f7b2291e5b200ac8c7c3b92560405160405180910390a45050565b60006121878261204f565b6121c6576040517f08c379a00000000000000000000000000000000000000000000000000000000081526004016121bd90613dbe565b60405180910390fd5b60006121d183610933565b90508073ffffffffffffffffffffffffffffffffffffffff168473ffffffffffffffffffffffffffffffffffffffff16148061224057508373ffffffffffffffffffffffffffffffffffffffff16612228846106fe565b73ffffffffffffffffffffffffffffffffffffffff16145b8061225157506122508185611b58565b5b91505092915050565b8273ffffffffffffffffffffffffffffffffffffffff1661227a82610933565b73ffffffffffffffffffffffffffffffffffffffff16146122d0576040517f08c379a00000000000000000000000000000000000000000000000000000000081526004016122c790613e9e565b60405180910390fd5b600073ffffffffffffffffffffffffffffffffffffffff168273ffffffffffffffffffffffffffffffffffffffff161415612340576040517f08c379a000000000000000000000000000000000000000000000000000000000815260040161233790613d7e565b60405180910390fd5b61234b838383612a3f565b6123566000826120c3565b6001600360008573ffffffffffffffffffffffffffffffffffffffff1673ffffffffffffffffffffffffffffffffffffffff16815260200190815260200160002060008282546123a691906141e5565b925050819055506001600360008473ffffffffffffffffffffffffffffffffffffffff1673ffffffffffffffffffffffffffffffffffffffff16815260200190815260200160002060008282546123fd9190614104565b92505081905550816002600083815260200190815260200160002060006101000a81548173ffffffffffffffffffffffffffffffffffffffff021916908373ffffffffffffffffffffffffffffffffffffffff160217905550808273ffffffffffffffffffffffffffffffffffffffff168473ffffffffffffffffffffffffffffffffffffffff167fddf252ad1be2c89b69c2b068fc378daa952ba7f163c4a11628f55a4df523b3ef60405160405180910390a4505050565b600081600001549050919050565b6124de828260405180602001604052806000815250612a44565b5050565b8173ffffffffffffffffffffffffffffffffffffffff168373ffffffffffffffffffffffffffffffffffffffff161415612551576040517f08c379a000000000000000000000000000000000000000000000000000000000815260040161254890613d9e565b60405180910390fd5b80600560008573ffffffffffffffffffffffffffffffffffffffff1673ffffffffffffffffffffffffffffffffffffffff16815260200190815260200160002060008473ffffffffffffffffffffffffffffffffffffffff1673ffffffffffffffffffffffffffffffffffffffff16815260200190815260200160002060006101000a81548160ff0219169083151502179055508173ffffffffffffffffffffffffffffffffffffffff168373ffffffffffffffffffffffffffffffffffffffff167f17307eab39ab6107e8899845ad3d59bd9653f200f220920489ca2b5937696c31836040516126429190613b3b565b60405180910390a3505050565b61265a84848461225a565b61266684848484612a9f565b6126a5576040517f08c379a000000000000000000000000000000000000000000000000000000000815260040161269c90613d3e565b60405180910390fd5b50505050565b606060008214156126f3576040518060400160405280600181526020017f30000000000000000000000000000000000000000000000000000000000000008152509050612853565b600082905060005b6000821461272557808061270e90614332565b915050600a8261271e919061415a565b91506126fb565b60008167ffffffffffffffff811115612767577f4e487b7100000000000000000000000000000000000000000000000000000000600052604160045260246000fd5b6040519080825280601f01601f1916602001820160405280156127995781602001600182028036833780820191505090505b5090505b6000851461284c576001826127b291906141e5565b9150600a856127c1919061437b565b60306127cd9190614104565b60f81b818381518110612809577f4e487b7100000000000000000000000000000000000000000000000000000000600052603260045260246000fd5b60200101907effffffffffffffffffffffffffffffffffffffffffffffffffffffffffffff1916908160001a905350600a85612845919061415a565b945061279d565b8093505050505b919050565b606060008251905060008114156128815760405180602001604052806000815250915050612a11565b600060036002836128929190614104565b61289c919061415a565b60046128a8919061418b565b905060006020826128b99190614104565b67ffffffffffffffff8111156128f8577f4e487b7100000000000000000000000000000000000000000000000000000000600052604160045260246000fd5b6040519080825280601f01601f19166020018201604052801561292a5781602001600182028036833780820191505090505b5090506000604051806060016040528060408152602001614bac604091399050600181016020830160005b868110156129ce5760038101905062ffffff818a015116603f8160121c168401518060081b905060ff603f83600c1c1686015116810190508060081b905060ff603f8360061c1686015116810190508060081b905060ff603f831686015116810190508060e01b90508084526004840193505050612955565b5060038606600181146129e857600281146129f857612a03565b613d3d60f01b6002830352612a03565b603d60f81b60018303525b508484525050819450505050505b919050565b60008151905060006a636f6e736f6c652e6c6f679050602083016000808483855afa5050505050565b505050565b612a4e8383612c36565b612a5b6000848484612a9f565b612a9a576040517f08c379a0000000000000000000000000000000000000000000000000000000008152600401612a9190613d3e565b60405180910390fd5b505050565b6000612ac08473ffffffffffffffffffffffffffffffffffffffff16612e04565b15612c29578373ffffffffffffffffffffffffffffffffffffffff1663150b7a02612ae96120bb565b8786866040518563ffffffff1660e01b8152600401612b0b9493929190613a96565b602060405180830381600087803b158015612b2557600080fd5b505af1925050508015612b5657506040513d601f19601f82011682018060405250810190612b5391906131d6565b60015b612bd9573d8060008114612b86576040519150601f19603f3d011682016040523d82523d6000602084013e612b8b565b606091505b50600081511415612bd1576040517f08c379a0000000000000000000000000000000000000000000000000000000008152600401612bc890613d3e565b60405180910390fd5b805181602001fd5b63150b7a0260e01b7bffffffffffffffffffffffffffffffffffffffffffffffffffffffff1916817bffffffffffffffffffffffffffffffffffffffffffffffffffffffff191614915050612c2e565b600190505b949350505050565b600073ffffffffffffffffffffffffffffffffffffffff168273ffffffffffffffffffffffffffffffffffffffff161415612ca6576040517f08c379a0000000000000000000000000000000000000000000000000000000008152600401612c9d90613e5e565b60405180910390fd5b612caf8161204f565b15612cef576040517f08c379a0000000000000000000000000000000000000000000000000000000008152600401612ce690613d5e565b60405180910390fd5b612cfb60008383612a3f565b6001600360008473ffffffffffffffffffffffffffffffffffffffff1673ffffffffffffffffffffffffffffffffffffffff1681526020019081526020016000206000828254612d4b9190614104565b92505081905550816002600083815260200190815260200160002060006101000a81548173ffffffffffffffffffffffffffffffffffffffff021916908373ffffffffffffffffffffffffffffffffffffffff160217905550808273ffffffffffffffffffffffffffffffffffffffff16600073ffffffffffffffffffffffffffffffffffffffff167fddf252ad1be2c89b69c2b068fc378daa952ba7f163c4a11628f55a4df523b3ef60405160405180910390a45050565b600080823b905060008111915050919050565b6040518060a0016040528060608152602001606081526020016000815260200160008152602001600081525090565b828054612e52906142cf565b90600052602060002090601f016020900481019282612e745760008555612ebb565b82601f10612e8d57805160ff1916838001178555612ebb565b82800160010185558215612ebb579182015b82811115612eba578251825591602001919060010190612e9f565b5b509050612ec89190612f18565b5090565b6040518061012001604052806000815260200160608152602001606081526020016000815260200160008152602001600081526020016000815260200160008152602001600081525090565b5b80821115612f31576000816000905550600101612f19565b5090565b6000612f48612f4384614046565b614021565b905082815260208101848484011115612f6057600080fd5b612f6b84828561428d565b509392505050565b600081359050612f8281614b4f565b92915050565b600081359050612f9781614b66565b92915050565b600081359050612fac81614b7d565b92915050565b600081519050612fc181614b7d565b92915050565b600082601f830112612fd857600080fd5b8135612fe8848260208601612f35565b91505092915050565b60008135905061300081614b94565b92915050565b60006020828403121561301857600080fd5b600061302684828501612f73565b91505092915050565b6000806040838503121561304257600080fd5b600061305085828601612f73565b925050602061306185828601612f73565b9150509250929050565b60008060006060848603121561308057600080fd5b600061308e86828701612f73565b935050602061309f86828701612f73565b92505060406130b086828701612ff1565b9150509250925092565b600080600080608085870312156130d057600080fd5b60006130de87828801612f73565b94505060206130ef87828801612f73565b935050604061310087828801612ff1565b925050606085013567ffffffffffffffff81111561311d57600080fd5b61312987828801612fc7565b91505092959194509250565b6000806040838503121561314857600080fd5b600061315685828601612f73565b925050602061316785828601612f88565b9150509250929050565b6000806040838503121561318457600080fd5b600061319285828601612f73565b92505060206131a385828601612ff1565b9150509250929050565b6000602082840312156131bf57600080fd5b60006131cd84828501612f9d565b91505092915050565b6000602082840312156131e857600080fd5b60006131f684828501612fb2565b91505092915050565b60006020828403121561321157600080fd5b600061321f84828501612ff1565b91505092915050565b600061323483836137b6565b905092915050565b61324581614219565b82525050565b600061325682614087565b61326081856140b5565b93508360208202850161327285614077565b8060005b858110156132ae578484038952815161328f8582613228565b945061329a836140a8565b925060208a01995050600181019050613276565b50829750879550505050505092915050565b6132c98161422b565b82525050565b60006132da82614092565b6132e481856140c6565b93506132f481856020860161429c565b6132fd81614468565b840191505092915050565b60006133138261409d565b61331d81856140d7565b935061332d81856020860161429c565b61333681614468565b840191505092915050565b600061334c8261409d565b61335681856140e8565b935061336681856020860161429c565b61336f81614468565b840191505092915050565b60006133858261409d565b61338f81856140f9565b935061339f81856020860161429c565b80840191505092915050565b60006133b8600b836140f9565b91506133c382614479565b600b82019050919050565b60006133db603a836140f9565b91506133e6826144a2565b603a82019050919050565b60006133fe602d836140e8565b9150613409826144f1565b604082019050919050565b60006134216032836140e8565b915061342c82614540565b604082019050919050565b6000613444601c836140e8565b915061344f8261458f565b602082019050919050565b6000613467600e836140f9565b9150613472826145b8565b600e82019050919050565b600061348a6027836140f9565b9150613495826145e1565b602782019050919050565b60006134ad6024836140e8565b91506134b882614630565b604082019050919050565b60006134d06019836140e8565b91506134db8261467f565b602082019050919050565b60006134f3602c836140e8565b91506134fe826146a8565b604082019050919050565b6000613516602e836140e8565b9150613521826146f7565b604082019050919050565b60006135396038836140e8565b915061354482614746565b604082019050919050565b600061355c602a836140e8565b915061356782614795565b604082019050919050565b600061357f6029836140e8565b915061358a826147e4565b604082019050919050565b60006135a26004836140f9565b91506135ad82614833565b600482019050919050565b60006135c56020836140e8565b91506135d08261485c565b602082019050919050565b60006135e8602c836140e8565b91506135f382614885565b604082019050919050565b600061360b6029836140e8565b9150613616826148d4565b604082019050919050565b600061362e602f836140f9565b915061363982614923565b602f82019050919050565b6000613651600a836140f9565b915061365c82614972565b600a82019050919050565b60006136746021836140e8565b915061367f8261499b565b604082019050919050565b6000613697601d836140f9565b91506136a2826149ea565b601d82019050919050565b60006136ba602c836140f9565b91506136c582614a13565b602c82019050919050565b60006136dd6031836140e8565b91506136e882614a62565b604082019050919050565b6000613700603d836140f9565b915061370b82614ab1565b603d82019050919050565b6000613723602d836140f9565b915061372e82614b00565b602d82019050919050565b600060a08301600083015184820360008601526137568282613308565b915050602083015184820360208601526137708282613308565b9150506040830151613785604086018261394e565b506060830151613798606086018261394e565b5060808301516137ab608086018261394e565b508091505092915050565b6000610120830160008301516137cf600086018261394e565b50602083015184820360208601526137e78282613308565b915050604083015184820360408601526138018282613308565b9150506060830151613816606086018261394e565b506080830151613829608086018261394e565b5060a083015161383c60a086018261394e565b5060c083015161384f60c086018261394e565b5060e083015161386260e086018261394e565b5061010083015161387761010086018261394e565b508091505092915050565b60006101208301600083015161389b600086018261394e565b50602083015184820360208601526138b38282613308565b915050604083015184820360408601526138cd8282613308565b91505060608301516138e2606086018261394e565b5060808301516138f5608086018261394e565b5060a083015161390860a086018261394e565b5060c083015161391b60c086018261394e565b5060e083015161392e60e086018261394e565b5061010083015161394361010086018261394e565b508091505092915050565b61395781614283565b82525050565b61396681614283565b82525050565b600061397782613644565b9150613983828c61337a565b915061398e826133ab565b915061399a828b61337a565b91506139a5826133ce565b91506139b1828a61337a565b91506139bc826136f3565b91506139c8828961337a565b91506139d38261345a565b91506139df828861337a565b91506139ea82613716565b91506139f6828761337a565b9150613a0182613621565b9150613a0d828661337a565b9150613a188261347d565b9150613a24828561337a565b9150613a2f826136ad565b9150613a3b828461337a565b9150613a4682613595565b91508190509a9950505050505050505050565b6000613a648261368a565b9150613a70828461337a565b915081905092915050565b6000602082019050613a90600083018461323c565b92915050565b6000608082019050613aab600083018761323c565b613ab8602083018661323c565b613ac5604083018561395d565b8181036060830152613ad781846132cf565b905095945050505050565b6000606082019050613af7600083018661323c565b613b04602083018561395d565b613b11604083018461395d565b949350505050565b60006020820190508181036000830152613b33818461324b565b905092915050565b6000602082019050613b5060008301846132c0565b92915050565b60006020820190508181036000830152613b708184613341565b905092915050565b60006080820190508181036000830152613b928187613341565b90508181036020830152613ba68186613341565b90508181036040830152613bba8185613341565b9050613bc9606083018461395d565b95945050505050565b60006080820190508181036000830152613bec8187613341565b90508181036020830152613c008186613341565b9050613c0f604083018561395d565b8181036060830152613c218184613341565b905095945050505050565b60006080820190508181036000830152613c468187613341565b90508181036020830152613c5a8186613341565b9050613c69604083018561395d565b613c76606083018461395d565b95945050505050565b600060a0820190508181036000830152613c998188613341565b90508181036020830152613cad8187613341565b9050613cbc604083018661395d565b613cc9606083018561395d565b613cd6608083018461395d565b9695505050505050565b60006060820190508181036000830152613cfa8186613341565b9050613d09602083018561395d565b613d16604083018461395d565b949350505050565b60006020820190508181036000830152613d37816133f1565b9050919050565b60006020820190508181036000830152613d5781613414565b9050919050565b60006020820190508181036000830152613d7781613437565b9050919050565b60006020820190508181036000830152613d97816134a0565b9050919050565b60006020820190508181036000830152613db7816134c3565b9050919050565b60006020820190508181036000830152613dd7816134e6565b9050919050565b60006020820190508181036000830152613df781613509565b9050919050565b60006020820190508181036000830152613e178161352c565b9050919050565b60006020820190508181036000830152613e378161354f565b9050919050565b60006020820190508181036000830152613e5781613572565b9050919050565b60006020820190508181036000830152613e77816135b8565b9050919050565b60006020820190508181036000830152613e97816135db565b9050919050565b60006020820190508181036000830152613eb7816135fe565b9050919050565b60006020820190508181036000830152613ed781613667565b9050919050565b60006020820190508181036000830152613ef7816136d0565b9050919050565b60006020820190508181036000830152613f188184613739565b905092915050565b60006020820190508181036000830152613f3a8184613882565b905092915050565b6000602082019050613f57600083018461395d565b92915050565b600061012082019050613f73600083018c61395d565b8181036020830152613f85818b613341565b90508181036040830152613f99818a613341565b9050613fa8606083018961395d565b613fb5608083018861395d565b613fc260a083018761395d565b613fcf60c083018661395d565b613fdc60e083018561395d565b613fea61010083018461395d565b9a9950505050505050505050565b600060408201905061400d600083018561395d565b61401a602083018461395d565b9392505050565b600061402b61403c565b90506140378282614301565b919050565b6000604051905090565b600067ffffffffffffffff82111561406157614060614439565b5b61406a82614468565b9050602081019050919050565b6000819050602082019050919050565b600081519050919050565b600081519050919050565b600081519050919050565b6000602082019050919050565b600082825260208201905092915050565b600082825260208201905092915050565b600082825260208201905092915050565b600082825260208201905092915050565b600081905092915050565b600061410f82614283565b915061411a83614283565b9250827fffffffffffffffffffffffffffffffffffffffffffffffffffffffffffffffff0382111561414f5761414e6143ac565b5b828201905092915050565b600061416582614283565b915061417083614283565b9250826141805761417f6143db565b5b828204905092915050565b600061419682614283565b91506141a183614283565b9250817fffffffffffffffffffffffffffffffffffffffffffffffffffffffffffffffff04831182151516156141da576141d96143ac565b5b828202905092915050565b60006141f082614283565b91506141fb83614283565b92508282101561420e5761420d6143ac565b5b828203905092915050565b600061422482614263565b9050919050565b60008115159050919050565b60007fffffffff0000000000000000000000000000000000000000000000000000000082169050919050565b600073ffffffffffffffffffffffffffffffffffffffff82169050919050565b6000819050919050565b82818337600083830152505050565b60005b838110156142ba57808201518184015260208101905061429f565b838111156142c9576000848401525b50505050565b600060028204905060018216806142e757607f821691505b602082108114156142fb576142fa61440a565b5b50919050565b61430a82614468565b810181811067ffffffffffffffff8211171561432957614328614439565b5b80604052505050565b600061433d82614283565b91507fffffffffffffffffffffffffffffffffffffffffffffffffffffffffffffffff8214156143705761436f6143ac565b5b600182019050919050565b600061438682614283565b915061439183614283565b9250826143a1576143a06143db565b5b828206905092915050565b7f4e487b7100000000000000000000000000000000000000000000000000000000600052601160045260246000fd5b7f4e487b7100000000000000000000000000000000000000000000000000000000600052601260045260246000fd5b7f4e487b7100000000000000000000000000000000000000000000000000000000600052602260045260246000fd5b7f4e487b7100000000000000000000000000000000000000000000000000000000600052604160045260246000fd5b6000601f19601f8301169050919050565b7f202d2d204e465420233a20000000000000000000000000000000000000000000600082015250565b7f222c20226465736372697074696f6e223a20225468652057697463686572205760008201527f696c642048756e74204e465421222c2022696d616765223a2022000000000000602082015250565b7f4572726f723a20626f7373206d757374206861766520485020746f206174746160008201527f636b2074686520706c6179657200000000000000000000000000000000000000602082015250565b7f4552433732313a207472616e7366657220746f206e6f6e20455243373231526560008201527f63656976657220696d706c656d656e7465720000000000000000000000000000602082015250565b7f4552433732313a20746f6b656e20616c7265616479206d696e74656400000000600082015250565b7f2c20226d61785f76616c7565223a000000000000000000000000000000000000600082015250565b7f7d2c207b202274726169745f74797065223a2022446566656e6365222c20227660008201527f616c7565223a2000000000000000000000000000000000000000000000000000602082015250565b7f4552433732313a207472616e7366657220746f20746865207a65726f2061646460008201527f7265737300000000000000000000000000000000000000000000000000000000602082015250565b7f4552433732313a20617070726f766520746f2063616c6c657200000000000000600082015250565b7f4552433732313a206f70657261746f7220717565727920666f72206e6f6e657860008201527f697374656e7420746f6b656e0000000000000000000000000000000000000000602082015250565b7f4572726f72203a20706c61796572206d757374206861766520485020746f206160008201527f747461636b2074686520626f7373000000000000000000000000000000000000602082015250565b7f4552433732313a20617070726f76652063616c6c6572206973206e6f74206f7760008201527f6e6572206e6f7220617070726f76656420666f7220616c6c0000000000000000602082015250565b7f4552433732313a2062616c616e636520717565727920666f7220746865207a6560008201527f726f206164647265737300000000000000000000000000000000000000000000602082015250565b7f4552433732313a206f776e657220717565727920666f72206e6f6e657869737460008201527f656e7420746f6b656e0000000000000000000000000000000000000000000000602082015250565b7f7d205d7d00000000000000000000000000000000000000000000000000000000600082015250565b7f4552433732313a206d696e7420746f20746865207a65726f2061646472657373600082015250565b7f4552433732313a20617070726f76656420717565727920666f72206e6f6e657860008201527f697374656e7420746f6b656e0000000000000000000000000000000000000000602082015250565b7f4552433732313a207472616e73666572206f6620746f6b656e2074686174206960008201527f73206e6f74206f776e0000000000000000000000000000000000000000000000602082015250565b7f7d2c207b202274726169745f74797065223a2022437269746963616c2043686160008201527f6e6365222c202276616c7565223a200000000000000000000000000000000000602082015250565b7f7b226e616d65223a202200000000000000000000000000000000000000000000600082015250565b7f4552433732313a20617070726f76616c20746f2063757272656e74206f776e6560008201527f7200000000000000000000000000000000000000000000000000000000000000602082015250565b7f646174613a6170706c69636174696f6e2f6a736f6e3b6261736536342c000000600082015250565b7f7d2c207b202274726169745f74797065223a20224d61676963616c204d616e6160008201527f222c202276616c7565223a200000000000000000000000000000000000000000602082015250565b7f4552433732313a207472616e736665722063616c6c6572206973206e6f74206f60008201527f776e6572206e6f7220617070726f766564000000000000000000000000000000602082015250565b7f222c202261747472696275746573223a205b207b202274726169745f7479706560008201527f223a20224865616c746820506f696e7473222c202276616c7565223a20000000602082015250565b7f7d2c207b202274726169745f74797065223a202241747461636b2044616d616760008201527f65222c202276616c7565223a2000000000000000000000000000000000000000602082015250565b614b5881614219565b8114614b6357600080fd5b50565b614b6f8161422b565b8114614b7a57600080fd5b50565b614b8681614237565b8114614b9157600080fd5b50565b614b9d81614283565b8114614ba857600080fd5b5056fe4142434445464748494a4b4c4d4e4f505152535455565758595a6162636465666768696a6b6c6d6e6f707172737475767778797a303132333435363738392b2f0a706c61796572207769746820636861726163687465722025732061626f757420746f2061747461636b206861766520257320485020616e642025732041444d696e74696e672043686172204e465420772f20746f6b656e496420257320616e642043686172496e646578202573a2646970667358221220c0f07b1fe20b013c8c9cbc95ab99f26bea313f365b8de503d4081ad9e0db23b564736f6c63430008040033446f6e6520696e697469616c697a696e67204368617220257320772f2048502025732c20696d67202573646f6e6520696e697469616c697a696e672074686520626f737320257320772f20696d61676520257320616e64206870202573446f6e6520696e697469616c697a696e67204368617220257320772f20646566656e73652025732c206d616e61202573446f6e6520696e697469616c697a696e67204368617220257320772f2c2061747461636b44616d6167652025732c206372697469634368616e6365202573",
  "linkReferences": {},
  "deployedLinkReferences": {}
}