{
  "_format": "hh-sol-artifact-1",
  "contractName": "EpicGame",
  "sourceName": "contracts/EpicGame.sol",
  "abi": [
    {
      "inputs": [
        {
          "internalType": "string[]",
          "name": "CharNames",
          "type": "string[]"
        },
        {
          "internalType": "string[]",
          "name": "CharImageURIs",
          "type": "string[]"
        },
        {
          "internalType": "uint256[]",
          "name": "CharHp",
          "type": "uint256[]"
        },
        {
          "internalType": "uint256[]",
          "name": "CharAttDmg",
          "type": "uint256[]"
        },
        {
          "internalType": "uint256[]",
          "name": "CharCC",
          "type": "uint256[]"
        },
        {
          "internalType": "uint256[]",
          "name": "CharDef",
          "type": "uint256[]"
        },
        {
          "internalType": "uint256[]",
          "name": "CharMana",
          "type": "uint256[]"
        },
        {
          "internalType": "string",
          "name": "bossName",
          "type": "string"
        },
        {
          "internalType": "string",
          "name": "bossImageURI",
          "type": "string"
        },
        {
          "internalType": "uint256",
          "name": "bossHp",
          "type": "uint256"
        },
        {
          "internalType": "uint256",
          "name": "bossAttackDamage",
          "type": "uint256"
        }
      ],
      "stateMutability": "nonpayable",
      "type": "constructor"
    },
    {
      "anonymous": false,
      "inputs": [
        {
          "indexed": true,
          "internalType": "address",
          "name": "owner",
          "type": "address"
        },
        {
          "indexed": true,
          "internalType": "address",
          "name": "approved",
          "type": "address"
        },
        {
          "indexed": true,
          "internalType": "uint256",
          "name": "tokenId",
          "type": "uint256"
        }
      ],
      "name": "Approval",
      "type": "event"
    },
    {
      "anonymous": false,
      "inputs": [
        {
          "indexed": true,
          "internalType": "address",
          "name": "owner",
          "type": "address"
        },
        {
          "indexed": true,
          "internalType": "address",
          "name": "operator",
          "type": "address"
        },
        {
          "indexed": false,
          "internalType": "bool",
          "name": "approved",
          "type": "bool"
        }
      ],
      "name": "ApprovalForAll",
      "type": "event"
    },
    {
      "anonymous": false,
      "inputs": [
        {
          "indexed": false,
          "internalType": "uint256",
          "name": "newBossHp",
          "type": "uint256"
        },
        {
          "indexed": false,
          "internalType": "uint256",
          "name": "newPlayerHp",
          "type": "uint256"
        }
      ],
      "name": "AttackComplete",
      "type": "event"
    },
    {
      "anonymous": false,
      "inputs": [
        {
          "indexed": false,
          "internalType": "address",
          "name": "sender",
          "type": "address"
        },
        {
          "indexed": false,
          "internalType": "uint256",
          "name": "tokenId",
          "type": "uint256"
        },
        {
          "indexed": false,
          "internalType": "uint256",
          "name": "CharIndex",
          "type": "uint256"
        }
      ],
      "name": "CharNFTMinted",
      "type": "event"
    },
    {
      "anonymous": false,
      "inputs": [
        {
          "indexed": true,
          "internalType": "address",
          "name": "from",
          "type": "address"
        },
        {
          "indexed": true,
          "internalType": "address",
          "name": "to",
          "type": "address"
        },
        {
          "indexed": true,
          "internalType": "uint256",
          "name": "tokenId",
          "type": "uint256"
        }
      ],
      "name": "Transfer",
      "type": "event"
    },
    {
      "inputs": [
        {
          "internalType": "uint256",
          "name": "",
          "type": "uint256"
        }
      ],
      "name": "NFTHolderAttributes",
      "outputs": [
        {
          "internalType": "uint256",
          "name": "CharIndex",
          "type": "uint256"
        },
        {
          "internalType": "string",
          "name": "name",
          "type": "string"
        },
        {
          "internalType": "string",
          "name": "imageURI",
          "type": "string"
        },
        {
          "internalType": "uint256",
          "name": "hp",
          "type": "uint256"
        },
        {
          "internalType": "uint256",
          "name": "maxHp",
          "type": "uint256"
        },
        {
          "internalType": "uint256",
          "name": "attackDamage",
          "type": "uint256"
        },
        {
          "internalType": "uint256",
          "name": "critChance",
          "type": "uint256"
        },
        {
          "internalType": "uint256",
          "name": "defense",
          "type": "uint256"
        },
        {
          "internalType": "uint256",
          "name": "mana",
          "type": "uint256"
        }
      ],
      "stateMutability": "view",
      "type": "function"
    },
    {
      "inputs": [
        {
          "internalType": "address",
          "name": "",
          "type": "address"
        }
      ],
      "name": "NFTHolders",
      "outputs": [
        {
          "internalType": "uint256",
          "name": "",
          "type": "uint256"
        }
      ],
      "stateMutability": "view",
      "type": "function"
    },
    {
      "inputs": [
        {
          "internalType": "address",
          "name": "to",
          "type": "address"
        },
        {
          "internalType": "uint256",
          "name": "tokenId",
          "type": "uint256"
        }
      ],
      "name": "approve",
      "outputs": [],
      "stateMutability": "nonpayable",
      "type": "function"
    },
    {
      "inputs": [],
      "name": "attackBoss",
      "outputs": [],
      "stateMutability": "nonpayable",
      "type": "function"
    },
    {
      "inputs": [
        {
          "internalType": "address",
          "name": "owner",
          "type": "address"
        }
      ],
      "name": "balanceOf",
      "outputs": [
        {
          "internalType": "uint256",
          "name": "",
          "type": "uint256"
        }
      ],
      "stateMutability": "view",
      "type": "function"
    },
    {
      "inputs": [],
      "name": "bigBoss",
      "outputs": [
        {
          "internalType": "string",
          "name": "name",
          "type": "string"
        },
        {
          "internalType": "string",
          "name": "imageURI",
          "type": "string"
        },
        {
          "internalType": "uint256",
          "name": "hp",
          "type": "uint256"
        },
        {
          "internalType": "uint256",
          "name": "maxHp",
          "type": "uint256"
        },
        {
          "internalType": "uint256",
          "name": "attackDamage",
          "type": "uint256"
        }
      ],
      "stateMutability": "view",
      "type": "function"
    },
    {
      "inputs": [],
      "name": "checkIfUserHasNFT",
      "outputs": [
        {
          "components": [
            {
              "internalType": "uint256",
              "name": "CharIndex",
              "type": "uint256"
            },
            {
              "internalType": "string",
              "name": "name",
              "type": "string"
            },
            {
              "internalType": "string",
              "name": "imageURI",
              "type": "string"
            },
            {
              "internalType": "uint256",
              "name": "hp",
              "type": "uint256"
            },
            {
              "internalType": "uint256",
              "name": "maxHp",
              "type": "uint256"
            },
            {
              "internalType": "uint256",
              "name": "attackDamage",
              "type": "uint256"
            },
            {
              "internalType": "uint256",
              "name": "critChance",
              "type": "uint256"
            },
            {
              "internalType": "uint256",
              "name": "defense",
              "type": "uint256"
            },
            {
              "internalType": "uint256",
              "name": "mana",
              "type": "uint256"
            }
          ],
          "internalType": "struct EpicGame.CharAttributes",
          "name": "",
          "type": "tuple"
        }
      ],
      "stateMutability": "view",
      "type": "function"
    },
    {
      "inputs": [],
      "name": "getAllDefaultChars",
      "outputs": [
        {
          "components": [
            {
              "internalType": "uint256",
              "name": "CharIndex",
              "type": "uint256"
            },
            {
              "internalType": "string",
              "name": "name",
              "type": "string"
            },
            {
              "internalType": "string",
              "name": "imageURI",
              "type": "string"
            },
            {
              "internalType": "uint256",
              "name": "hp",
              "type": "uint256"
            },
            {
              "internalType": "uint256",
              "name": "maxHp",
              "type": "uint256"
            },
            {
              "internalType": "uint256",
              "name": "attackDamage",
              "type": "uint256"
            },
            {
              "internalType": "uint256",
              "name": "critChance",
              "type": "uint256"
            },
            {
              "internalType": "uint256",
              "name": "defense",
              "type": "uint256"
            },
            {
              "internalType": "uint256",
              "name": "mana",
              "type": "uint256"
            }
          ],
          "internalType": "struct EpicGame.CharAttributes[]",
          "name": "",
          "type": "tuple[]"
        }
      ],
      "stateMutability": "view",
      "type": "function"
    },
    {
      "inputs": [],
      "name": "getAllPlayer",
      "outputs": [
        {
          "components": [
            {
              "internalType": "uint256",
              "name": "CharIndex",
              "type": "uint256"
            },
            {
              "internalType": "string",
              "name": "name",
              "type": "string"
            },
            {
              "internalType": "string",
              "name": "imageURI",
              "type": "string"
            },
            {
              "internalType": "uint256",
              "name": "hp",
              "type": "uint256"
            },
            {
              "internalType": "uint256",
              "name": "maxHp",
              "type": "uint256"
            },
            {
              "internalType": "uint256",
              "name": "attackDamage",
              "type": "uint256"
            },
            {
              "internalType": "uint256",
              "name": "critChance",
              "type": "uint256"
            },
            {
              "internalType": "uint256",
              "name": "defense",
              "type": "uint256"
            },
            {
              "internalType": "uint256",
              "name": "mana",
              "type": "uint256"
            }
          ],
          "internalType": "struct EpicGame.CharAttributes[]",
          "name": "",
          "type": "tuple[]"
        }
      ],
      "stateMutability": "view",
      "type": "function"
    },
    {
      "inputs": [
        {
          "internalType": "uint256",
          "name": "tokenId",
          "type": "uint256"
        }
      ],
      "name": "getApproved",
      "outputs": [
        {
          "internalType": "address",
          "name": "",
          "type": "address"
        }
      ],
      "stateMutability": "view",
      "type": "function"
    },
    {
      "inputs": [],
      "name": "getBigBoss",
      "outputs": [
        {
          "components": [
            {
              "internalType": "string",
              "name": "name",
              "type": "string"
            },
            {
              "internalType": "string",
              "name": "imageURI",
              "type": "string"
            },
            {
              "internalType": "uint256",
              "name": "hp",
              "type": "uint256"
            },
            {
              "internalType": "uint256",
              "name": "maxHp",
              "type": "uint256"
            },
            {
              "internalType": "uint256",
              "name": "attackDamage",
              "type": "uint256"
            }
          ],
          "internalType": "struct EpicGame.BigBoss",
          "name": "",
          "type": "tuple"
        }
      ],
      "stateMutability": "view",
      "type": "function"
    },
    {
      "inputs": [
        {
          "internalType": "address",
          "name": "owner",
          "type": "address"
        },
        {
          "internalType": "address",
          "name": "operator",
          "type": "address"
        }
      ],
      "name": "isApprovedForAll",
      "outputs": [
        {
          "internalType": "bool",
          "name": "",
          "type": "bool"
        }
      ],
      "stateMutability": "view",
      "type": "function"
    },
    {
      "inputs": [
        {
          "internalType": "uint256",
          "name": "_CharIndex",
          "type": "uint256"
        }
      ],
      "name": "mintCharNFT",
      "outputs": [],
      "stateMutability": "nonpayable",
      "type": "function"
    },
    {
      "inputs": [],
      "name": "name",
      "outputs": [
        {
          "internalType": "string",
          "name": "",
          "type": "string"
        }
      ],
      "stateMutability": "view",
      "type": "function"
    },
    {
      "inputs": [
        {
          "internalType": "uint256",
          "name": "tokenId",
          "type": "uint256"
        }
      ],
      "name": "ownerOf",
      "outputs": [
        {
          "internalType": "address",
          "name": "",
          "type": "address"
        }
      ],
      "stateMutability": "view",
      "type": "function"
    },
    {
      "inputs": [
        {
          "internalType": "address",
          "name": "from",
          "type": "address"
        },
        {
          "internalType": "address",
          "name": "to",
          "type": "address"
        },
        {
          "internalType": "uint256",
          "name": "tokenId",
          "type": "uint256"
        }
      ],
      "name": "safeTransferFrom",
      "outputs": [],
      "stateMutability": "nonpayable",
      "type": "function"
    },
    {
      "inputs": [
        {
          "internalType": "address",
          "name": "from",
          "type": "address"
        },
        {
          "internalType": "address",
          "name": "to",
          "type": "address"
        },
        {
          "internalType": "uint256",
          "name": "tokenId",
          "type": "uint256"
        },
        {
          "internalType": "bytes",
          "name": "_data",
          "type": "bytes"
        }
      ],
      "name": "safeTransferFrom",
      "outputs": [],
      "stateMutability": "nonpayable",
      "type": "function"
    },
    {
      "inputs": [
        {
          "internalType": "address",
          "name": "operator",
          "type": "address"
        },
        {
          "internalType": "bool",
          "name": "approved",
          "type": "bool"
        }
      ],
      "name": "setApprovalForAll",
      "outputs": [],
      "stateMutability": "nonpayable",
      "type": "function"
    },
    {
      "inputs": [
        {
          "internalType": "bytes4",
          "name": "interfaceId",
          "type": "bytes4"
        }
      ],
      "name": "supportsInterface",
      "outputs": [
        {
          "internalType": "bool",
          "name": "",
          "type": "bool"
        }
      ],
      "stateMutability": "view",
      "type": "function"
    },
    {
      "inputs": [],
      "name": "symbol",
      "outputs": [
        {
          "internalType": "string",
          "name": "",
          "type": "string"
        }
      ],
      "stateMutability": "view",
      "type": "function"
    },
    {
      "inputs": [
        {
          "internalType": "uint256",
          "name": "_tokenId",
          "type": "uint256"
        }
      ],
      "name": "tokenURI",
      "outputs": [
        {
          "internalType": "string",
          "name": "",
          "type": "string"
        }
      ],
      "stateMutability": "view",
      "type": "function"
    },
    {
      "inputs": [
        {
          "internalType": "address",
          "name": "from",
          "type": "address"
        },
        {
          "internalType": "address",
          "name": "to",
          "type": "address"
        },
        {
          "internalType": "uint256",
          "name": "tokenId",
          "type": "uint256"
        }
      ],
      "name": "transferFrom",
      "outputs": [],
      "stateMutability": "nonpayable",
      "type": "function"
    }
  ],
  "bytecode": "0x60806040523480156200001157600080fd5b50604051620064c0380380620064c0833981810160405281019062000037919062000e71565b6040518060400160405280600b81526020017f54686520576974636865720000000000000000000000000000000000000000008152506040518060400160405280600981526020017f57696c642048756e7400000000000000000000000000000000000000000000008152508160009080519060200190620000bb92919062000bd9565b508060019080519060200190620000d492919062000bd9565b5050506040518060a0016040528085815260200184815260200183815260200183815260200182815250600660008201518160000190805190602001906200011e92919062000bd9565b5060208201518160010190805190602001906200013d92919062000bd9565b50604082015181600201556060820151816003015560808201518160040155905050620002c06040518060600160405280603381526020016200641f60339139600660000180546200018f9062001384565b80601f0160208091040260200160405190810160405280929190818152602001828054620001bd9062001384565b80156200020e5780601f10620001e2576101008083540402835291602001916200020e565b820191906000526020600020905b815481529060010190602001808311620001f057829003601f168201915b505050505060066001018054620002259062001384565b80601f0160208091040260200160405190810160405280929190818152602001828054620002539062001384565b8015620002a45780601f106200027857610100808354040283529160200191620002a4565b820191906000526020600020905b8154815290600101906020018083116200028657829003601f168201915b5050505050600660020154620008ed60201b62001ff81760201c565b620003176040518060400160405280602081526020017f772f206d617820487020257320616e642061747461636b44616d6167652025738152506006600201546006600401546200099960201b6200209a1760201c565b60005b8b51811015620008c457600c6040518061012001604052808381526020018e848151811062000372577f4e487b7100000000000000000000000000000000000000000000000000000000600052603260045260246000fd5b602002602001015181526020018d8481518110620003b9577f4e487b7100000000000000000000000000000000000000000000000000000000600052603260045260246000fd5b602002602001015181526020018c848151811062000400577f4e487b7100000000000000000000000000000000000000000000000000000000600052603260045260246000fd5b602002602001015181526020018c848151811062000447577f4e487b7100000000000000000000000000000000000000000000000000000000600052603260045260246000fd5b602002602001015181526020018b84815181106200048e577f4e487b7100000000000000000000000000000000000000000000000000000000600052603260045260246000fd5b602002602001015181526020018a8481518110620004d5577f4e487b7100000000000000000000000000000000000000000000000000000000600052603260045260246000fd5b602002602001015181526020018984815181106200051c577f4e487b7100000000000000000000000000000000000000000000000000000000600052603260045260246000fd5b6020026020010151815260200188848151811062000563577f4e487b7100000000000000000000000000000000000000000000000000000000600052603260045260246000fd5b60200260200101518152509080600181540180825580915050600190039060005260206000209060090201600090919091909150600082015181600001556020820151816001019080519060200190620005bf92919062000bd9565b506040820151816002019080519060200190620005de92919062000bd9565b50606082015181600301556080820151816004015560a0820151816005015560c0820151816006015560e08201518160070155610100820151816008015550506000600c82815481106200065b577f4e487b7100000000000000000000000000000000000000000000000000000000600052603260045260246000fd5b90600052602060002090600902016040518061012001604052908160008201548152602001600182018054620006919062001384565b80601f0160208091040260200160405190810160405280929190818152602001828054620006bf9062001384565b8015620007105780601f10620006e45761010080835404028352916020019162000710565b820191906000526020600020905b815481529060010190602001808311620006f257829003601f168201915b505050505081526020016002820180546200072b9062001384565b80601f0160208091040260200160405190810160405280929190818152602001828054620007599062001384565b8015620007aa5780601f106200077e57610100808354040283529160200191620007aa565b820191906000526020600020905b8154815290600101906020018083116200078c57829003601f168201915b50505050508152602001600382015481526020016004820154815260200160058201548152602001600682015481526020016007820154815260200160088201548152505090506200082f6040518060600160405280602a8152602001620063f5602a913982602001518360600151846040015162000a4260201b620021391760201c565b6200086d6040518060600160405280603e815260200162006482603e913982602001518360a001518460c0015162000aee60201b620021db1760201c565b620008ac604051806060016040528060308152602001620064526030913982602001518360e0015184610100015162000aee60201b620021db1760201c565b50600181620008bc9190620012e7565b90506200031a565b50620008dc600b62000b9a60201b6200227d1760201c565b5050505050505050505050620014a8565b62000993848484846040516024016200090a9493929190620010ab565b6040516020818303038152906040527f9fd009f5000000000000000000000000000000000000000000000000000000007bffffffffffffffffffffffffffffffffffffffffffffffffffffffff19166020820180517bffffffffffffffffffffffffffffffffffffffffffffffffffffffff838183161783525050505062000bb060201b60201c565b50505050565b62000a3d838383604051602401620009b493929190620011ca565b6040516020818303038152906040527f969cdd03000000000000000000000000000000000000000000000000000000007bffffffffffffffffffffffffffffffffffffffffffffffffffffffff19166020820180517bffffffffffffffffffffffffffffffffffffffffffffffffffffffff838183161783525050505062000bb060201b60201c565b505050565b62000ae88484848460405160240162000a5f94939291906200110d565b6040516020818303038152906040527f8d142cdd000000000000000000000000000000000000000000000000000000007bffffffffffffffffffffffffffffffffffffffffffffffffffffffff19166020820180517bffffffffffffffffffffffffffffffffffffffffffffffffffffffff838183161783525050505062000bb060201b60201c565b50505050565b62000b948484848460405160240162000b0b94939291906200116f565b6040516020818303038152906040527fd5cf17d0000000000000000000000000000000000000000000000000000000007bffffffffffffffffffffffffffffffffffffffffffffffffffffffff19166020820180517bffffffffffffffffffffffffffffffffffffffffffffffffffffffff838183161783525050505062000bb060201b60201c565b50505050565b6001816000016000828254019250508190555050565b60008151905060006a636f6e736f6c652e6c6f679050602083016000808483855afa5050505050565b82805462000be79062001384565b90600052602060002090601f01602090048101928262000c0b576000855562000c57565b82601f1062000c2657805160ff191683800117855562000c57565b8280016001018555821562000c57579182015b8281111562000c5657825182559160200191906001019062000c39565b5b50905062000c66919062000c6a565b5090565b5b8082111562000c8557600081600090555060010162000c6b565b5090565b600062000ca062000c9a8462001237565b6200120e565b9050808382526020820190508285602086028201111562000cc057600080fd5b60005b8581101562000d0f57815167ffffffffffffffff81111562000ce457600080fd5b80860162000cf3898262000e2d565b8552602085019450602084019350505060018101905062000cc3565b5050509392505050565b600062000d3062000d2a8462001266565b6200120e565b9050808382526020820190508285602086028201111562000d5057600080fd5b60005b8581101562000d84578162000d69888262000e5a565b84526020840193506020830192505060018101905062000d53565b5050509392505050565b600062000da562000d9f8462001295565b6200120e565b90508281526020810184848401111562000dbe57600080fd5b62000dcb8482856200134e565b509392505050565b600082601f83011262000de557600080fd5b815162000df784826020860162000c89565b91505092915050565b600082601f83011262000e1257600080fd5b815162000e2484826020860162000d19565b91505092915050565b600082601f83011262000e3f57600080fd5b815162000e5184826020860162000d8e565b91505092915050565b60008151905062000e6b816200148e565b92915050565b60008060008060008060008060008060006101608c8e03121562000e9457600080fd5b60008c015167ffffffffffffffff81111562000eaf57600080fd5b62000ebd8e828f0162000dd3565b9b505060208c015167ffffffffffffffff81111562000edb57600080fd5b62000ee98e828f0162000dd3565b9a505060408c015167ffffffffffffffff81111562000f0757600080fd5b62000f158e828f0162000e00565b99505060608c015167ffffffffffffffff81111562000f3357600080fd5b62000f418e828f0162000e00565b98505060808c015167ffffffffffffffff81111562000f5f57600080fd5b62000f6d8e828f0162000e00565b97505060a08c015167ffffffffffffffff81111562000f8b57600080fd5b62000f998e828f0162000e00565b96505060c08c015167ffffffffffffffff81111562000fb757600080fd5b62000fc58e828f0162000e00565b95505060e08c015167ffffffffffffffff81111562000fe357600080fd5b62000ff18e828f0162000e2d565b9450506101008c015167ffffffffffffffff8111156200101057600080fd5b6200101e8e828f0162000e2d565b935050610120620010328e828f0162000e5a565b925050610140620010468e828f0162000e5a565b9150509295989b509295989b9093969950565b60006200106682620012cb565b620010728185620012d6565b9350620010848185602086016200134e565b6200108f816200147d565b840191505092915050565b620010a58162001344565b82525050565b60006080820190508181036000830152620010c7818762001059565b90508181036020830152620010dd818662001059565b90508181036040830152620010f3818562001059565b90506200110460608301846200109a565b95945050505050565b6000608082019050818103600083015262001129818762001059565b905081810360208301526200113f818662001059565b90506200115060408301856200109a565b818103606083015262001164818462001059565b905095945050505050565b600060808201905081810360008301526200118b818762001059565b90508181036020830152620011a1818662001059565b9050620011b260408301856200109a565b620011c160608301846200109a565b95945050505050565b60006060820190508181036000830152620011e6818662001059565b9050620011f760208301856200109a565b6200120660408301846200109a565b949350505050565b60006200121a6200122d565b9050620012288282620013ba565b919050565b6000604051905090565b600067ffffffffffffffff8211156200125557620012546200144e565b5b602082029050602081019050919050565b600067ffffffffffffffff8211156200128457620012836200144e565b5b602082029050602081019050919050565b600067ffffffffffffffff821115620012b357620012b26200144e565b5b620012be826200147d565b9050602081019050919050565b600081519050919050565b600082825260208201905092915050565b6000620012f48262001344565b9150620013018362001344565b9250827fffffffffffffffffffffffffffffffffffffffffffffffffffffffffffffffff03821115620013395762001338620013f0565b5b828201905092915050565b6000819050919050565b60005b838110156200136e57808201518184015260208101905062001351565b838111156200137e576000848401525b50505050565b600060028204905060018216806200139d57607f821691505b60208210811415620013b457620013b36200141f565b5b50919050565b620013c5826200147d565b810181811067ffffffffffffffff82111715620013e757620013e66200144e565b5b80604052505050565b7f4e487b7100000000000000000000000000000000000000000000000000000000600052601160045260246000fd5b7f4e487b7100000000000000000000000000000000000000000000000000000000600052602260045260246000fd5b7f4e487b7100000000000000000000000000000000000000000000000000000000600052604160045260246000fd5b6000601f19601f8301169050919050565b620014998162001344565b8114620014a557600080fd5b50565b614f3d80620014b86000396000f3fe608060405234801561001057600080fd5b50600436106101425760003560e01c80637ba8b8d6116100b8578063c87b56dd1161007c578063c87b56dd14610379578063c8cf27f4146103a9578063d4f24c5b146103c7578063d85aeb3d146103d1578063e985e9c5146103ef578063f3c17dbd1461041f57610142565b80637ba8b8d6146102e557806395d89b4114610301578063a22cb4651461031f578063a9c326791461033b578063b88d4fde1461035d57610142565b8063095ea7b31161010a578063095ea7b31461021357806319ac547b1461022f57806323b872dd1461024d57806342842e0e146102695780636352211e1461028557806370a08231146102b557610142565b806301ffc9a7146101475780630665f9611461017757806306fdde0314610195578063081812fc146101b357806308357f05146101e3575b600080fd5b610161600480360381019061015c919061345b565b610457565b60405161016e9190613de9565b60405180910390f35b61017f610539565b60405161018c91906141ac565b60405180910390f35b61019d610695565b6040516101aa9190613e04565b60405180910390f35b6101cd60048036038101906101c891906134ad565b610727565b6040516101da9190613d29565b60405180910390f35b6101fd60048036038101906101f891906132b4565b6107ac565b60405161020a91906141f0565b60405180910390f35b61022d6004803603810190610228919061341f565b6107c4565b005b6102376108dc565b6040516102449190613dc7565b60405180910390f35b61026760048036038101906102629190613319565b610b61565b005b610283600480360381019061027e9190613319565b610bc1565b005b61029f600480360381019061029a91906134ad565b610be1565b6040516102ac9190613d29565b60405180910390f35b6102cf60048036038101906102ca91906132b4565b610c93565b6040516102dc91906141f0565b60405180910390f35b6102ff60048036038101906102fa91906134ad565b610d4b565b005b610309611252565b6040516103169190613e04565b60405180910390f35b610339600480360381019061033491906133e3565b6112e4565b005b6103436112fa565b604051610354959493929190613f2d565b60405180910390f35b61037760048036038101906103729190613368565b61142e565b005b610393600480360381019061038e91906134ad565b611490565b6040516103a09190613e04565b60405180910390f35b6103b1611707565b6040516103be91906141ce565b60405180910390f35b6103cf6118fe565b005b6103d9611c3c565b6040516103e69190613dc7565b60405180910390f35b610409600480360381019061040491906132dd565b611e06565b6040516104169190613de9565b60405180910390f35b610439600480360381019061043491906134ad565b611e9a565b60405161044e9998979695949392919061420b565b60405180910390f35b60007f80ac58cd000000000000000000000000000000000000000000000000000000007bffffffffffffffffffffffffffffffffffffffffffffffffffffffff1916827bffffffffffffffffffffffffffffffffffffffffffffffffffffffff1916148061052257507f5b5e139f000000000000000000000000000000000000000000000000000000007bffffffffffffffffffffffffffffffffffffffffffffffffffffffff1916827bffffffffffffffffffffffffffffffffffffffffffffffffffffffff1916145b80610532575061053182612293565b5b9050919050565b6105416130c5565b60066040518060a001604052908160008201805461055e9061457d565b80601f016020809104026020016040519081016040528092919081815260200182805461058a9061457d565b80156105d75780601f106105ac576101008083540402835291602001916105d7565b820191906000526020600020905b8154815290600101906020018083116105ba57829003601f168201915b505050505081526020016001820180546105f09061457d565b80601f016020809104026020016040519081016040528092919081815260200182805461061c9061457d565b80156106695780601f1061063e57610100808354040283529160200191610669565b820191906000526020600020905b81548152906001019060200180831161064c57829003601f168201915b505050505081526020016002820154815260200160038201548152602001600482015481525050905090565b6060600080546106a49061457d565b80601f01602080910402602001604051908101604052809291908181526020018280546106d09061457d565b801561071d5780601f106106f25761010080835404028352916020019161071d565b820191906000526020600020905b81548152906001019060200180831161070057829003601f168201915b5050505050905090565b6000610732826122fd565b610771576040517f08c379a00000000000000000000000000000000000000000000000000000000081526004016107689061412c565b60405180910390fd5b6004600083815260200190815260200160002060009054906101000a900473ffffffffffffffffffffffffffffffffffffffff169050919050565b600e6020528060005260406000206000915090505481565b60006107cf82610be1565b90508073ffffffffffffffffffffffffffffffffffffffff168373ffffffffffffffffffffffffffffffffffffffff161415610840576040517f08c379a00000000000000000000000000000000000000000000000000000000081526004016108379061416c565b60405180910390fd5b8073ffffffffffffffffffffffffffffffffffffffff1661085f612369565b73ffffffffffffffffffffffffffffffffffffffff16148061088e575061088d81610888612369565b611e06565b5b6108cd576040517f08c379a00000000000000000000000000000000000000000000000000000000081526004016108c4906140ac565b60405180910390fd5b6108d78383612371565b505050565b606060006108ea600b61242a565b67ffffffffffffffff811115610929577f4e487b7100000000000000000000000000000000000000000000000000000000600052604160045260246000fd5b60405190808252806020026020018201604052801561096257816020015b61094f6130f4565b8152602001906001900390816109475790505b50905060005b610972600b61242a565b811015610b5957600d600082815260200190815260200160002060405180610120016040529081600082015481526020016001820180546109b29061457d565b80601f01602080910402602001604051908101604052809291908181526020018280546109de9061457d565b8015610a2b5780601f10610a0057610100808354040283529160200191610a2b565b820191906000526020600020905b815481529060010190602001808311610a0e57829003601f168201915b50505050508152602001600282018054610a449061457d565b80601f0160208091040260200160405190810160405280929190818152602001828054610a709061457d565b8015610abd5780601f10610a9257610100808354040283529160200191610abd565b820191906000526020600020905b815481529060010190602001808311610aa057829003601f168201915b505050505081526020016003820154815260200160048201548152602001600582015481526020016006820154815260200160078201548152602001600882015481525050828281518110610b3b577f4e487b7100000000000000000000000000000000000000000000000000000000600052603260045260246000fd5b60200260200101819052508080610b51906145e0565b915050610968565b508091505090565b610b72610b6c612369565b82612438565b610bb1576040517f08c379a0000000000000000000000000000000000000000000000000000000008152600401610ba89061418c565b60405180910390fd5b610bbc838383612516565b505050565b610bdc8383836040518060200160405280600081525061142e565b505050565b6000806002600084815260200190815260200160002060009054906101000a900473ffffffffffffffffffffffffffffffffffffffff169050600073ffffffffffffffffffffffffffffffffffffffff168173ffffffffffffffffffffffffffffffffffffffff161415610c8a576040517f08c379a0000000000000000000000000000000000000000000000000000000008152600401610c81906140ec565b60405180910390fd5b80915050919050565b60008073ffffffffffffffffffffffffffffffffffffffff168273ffffffffffffffffffffffffffffffffffffffff161415610d04576040517f08c379a0000000000000000000000000000000000000000000000000000000008152600401610cfb906140cc565b60405180910390fd5b600360008373ffffffffffffffffffffffffffffffffffffffff1673ffffffffffffffffffffffffffffffffffffffff168152602001908152602001600020549050919050565b6000610d57600b61242a565b9050610d633382612772565b604051806101200160405280838152602001600c8481548110610daf577f4e487b7100000000000000000000000000000000000000000000000000000000600052603260045260246000fd5b90600052602060002090600902016001018054610dcb9061457d565b80601f0160208091040260200160405190810160405280929190818152602001828054610df79061457d565b8015610e445780601f10610e1957610100808354040283529160200191610e44565b820191906000526020600020905b815481529060010190602001808311610e2757829003601f168201915b50505050508152602001600c8481548110610e88577f4e487b7100000000000000000000000000000000000000000000000000000000600052603260045260246000fd5b90600052602060002090600902016002018054610ea49061457d565b80601f0160208091040260200160405190810160405280929190818152602001828054610ed09061457d565b8015610f1d5780601f10610ef257610100808354040283529160200191610f1d565b820191906000526020600020905b815481529060010190602001808311610f0057829003601f168201915b50505050508152602001600c8481548110610f61577f4e487b7100000000000000000000000000000000000000000000000000000000600052603260045260246000fd5b9060005260206000209060090201600301548152602001600c8481548110610fb2577f4e487b7100000000000000000000000000000000000000000000000000000000600052603260045260246000fd5b9060005260206000209060090201600401548152602001600c8481548110611003577f4e487b7100000000000000000000000000000000000000000000000000000000600052603260045260246000fd5b9060005260206000209060090201600501548152602001600c8481548110611054577f4e487b7100000000000000000000000000000000000000000000000000000000600052603260045260246000fd5b9060005260206000209060090201600601548152602001600c84815481106110a5577f4e487b7100000000000000000000000000000000000000000000000000000000600052603260045260246000fd5b9060005260206000209060090201600701548152602001600c84815481106110f6577f4e487b7100000000000000000000000000000000000000000000000000000000600052603260045260246000fd5b906000526020600020906009020160080154815250600d6000838152602001908152602001600020600082015181600001556020820151816001019080519060200190611144929190613140565b506040820151816002019080519060200190611161929190613140565b50606082015181600301556080820151816004015560a0820151816005015560c0820151816006015560e0820151816007015561010082015181600801559050506111c56040518060600160405280602f8152602001614ed9602f9139828461209a565b80600e60003373ffffffffffffffffffffffffffffffffffffffff1673ffffffffffffffffffffffffffffffffffffffff16815260200190815260200160002081905550611213600b61227d565b7f4ae7bfb294c5f391d0de0943e0ae004eaca406c1a94f934c19c25a255ebae9c033828460405161124693929190613d90565b60405180910390a15050565b6060600180546112619061457d565b80601f016020809104026020016040519081016040528092919081815260200182805461128d9061457d565b80156112da5780601f106112af576101008083540402835291602001916112da565b820191906000526020600020905b8154815290600101906020018083116112bd57829003601f168201915b5050505050905090565b6112f66112ef612369565b8383612790565b5050565b600680600001805461130b9061457d565b80601f01602080910402602001604051908101604052809291908181526020018280546113379061457d565b80156113845780601f1061135957610100808354040283529160200191611384565b820191906000526020600020905b81548152906001019060200180831161136757829003601f168201915b5050505050908060010180546113999061457d565b80601f01602080910402602001604051908101604052809291908181526020018280546113c59061457d565b80156114125780601f106113e757610100808354040283529160200191611412565b820191906000526020600020905b8154815290600101906020018083116113f557829003601f168201915b5050505050908060020154908060030154908060040154905085565b61143f611439612369565b83612438565b61147e576040517f08c379a00000000000000000000000000000000000000000000000000000000081526004016114759061418c565b60405180910390fd5b61148a848484846128fd565b50505050565b60606000600d600084815260200190815260200160002060405180610120016040529081600082015481526020016001820180546114cd9061457d565b80601f01602080910402602001604051908101604052809291908181526020018280546114f99061457d565b80156115465780601f1061151b57610100808354040283529160200191611546565b820191906000526020600020905b81548152906001019060200180831161152957829003601f168201915b5050505050815260200160028201805461155f9061457d565b80601f016020809104026020016040519081016040528092919081815260200182805461158b9061457d565b80156115d85780601f106115ad576101008083540402835291602001916115d8565b820191906000526020600020905b8154815290600101906020018083116115bb57829003601f168201915b5050505050815260200160038201548152602001600482015481526020016005820154815260200160068201548152602001600782015481526020016008820154815250509050600061162e8260600151612959565b9050600061163f8360800151612959565b905060006116508460a00151612959565b905060006116618560c00151612959565b905060006116728660e00151612959565b90506000611684876101000151612959565b905060006116d088602001516116998c612959565b8a604001518a8a8a8a8a8a6040516020016116bc99989796959493929190613c1a565b604051602081830303815290604052612b06565b90506000816040516020016116e59190613d07565b6040516020818303038152906040529050809950505050505050505050919050565b61170f6130f4565b6000600e60003373ffffffffffffffffffffffffffffffffffffffff1673ffffffffffffffffffffffffffffffffffffffff16815260200190815260200160002054905060008111156118ed57600d600082815260200190815260200160002060405180610120016040529081600082015481526020016001820180546117959061457d565b80601f01602080910402602001604051908101604052809291908181526020018280546117c19061457d565b801561180e5780601f106117e35761010080835404028352916020019161180e565b820191906000526020600020905b8154815290600101906020018083116117f157829003601f168201915b505050505081526020016002820180546118279061457d565b80601f01602080910402602001604051908101604052809291908181526020018280546118539061457d565b80156118a05780601f10611875576101008083540402835291602001916118a0565b820191906000526020600020905b81548152906001019060200180831161188357829003601f168201915b5050505050815260200160038201548152602001600482015481526020016005820154815260200160068201548152602001600782015481526020016008820154815250509150506118fb565b6118f56130f4565b80925050505b90565b6000600e60003373ffffffffffffffffffffffffffffffffffffffff1673ffffffffffffffffffffffffffffffffffffffff1681526020019081526020016000205490506000600d60008381526020019081526020016000209050611a116040518060600160405280603f8152602001614e9a603f91398260010180546119849061457d565b80601f01602080910402602001604051908101604052809291908181526020018280546119b09061457d565b80156119fd5780601f106119d2576101008083540402835291602001916119fd565b820191906000526020600020905b8154815290600101906020018083116119e057829003601f168201915b5050505050836003015484600501546121db565b611ae96040518060400160405280601b81526020017f426f73732025732068617320257320487020616e64202573204144000000000081525060066000018054611a5a9061457d565b80601f0160208091040260200160405190810160405280929190818152602001828054611a869061457d565b8015611ad35780601f10611aa857610100808354040283529160200191611ad3565b820191906000526020600020905b815481529060010190602001808311611ab657829003601f168201915b50505050506006600201546006600401546121db565b6000816003015411611b30576040517f08c379a0000000000000000000000000000000000000000000000000000000008152600401611b279061408c565b60405180910390fd5b600060066002015411611b78576040517f08c379a0000000000000000000000000000000000000000000000000000000008152600401611b6f90613fcc565b60405180910390fd5b80600501546006600201541015611b99576000600660020181905550611bb8565b8060050154600660020154611bae9190614493565b6006600201819055505b60066004015481600301541015611bd85760008160030181905550611bf6565b6006600401548160030154611bed9190614493565b81600301819055505b7f838ab28464562786a6c4ab2311964b82fa60bd9b14aa7e856af1f3f18d41a4146006600201548260030154604051611c309291906142a6565b60405180910390a15050565b6060600c805480602002602001604051908101604052809291908181526020016000905b82821015611dfd57838290600052602060002090600902016040518061012001604052908160008201548152602001600182018054611c9e9061457d565b80601f0160208091040260200160405190810160405280929190818152602001828054611cca9061457d565b8015611d175780601f10611cec57610100808354040283529160200191611d17565b820191906000526020600020905b815481529060010190602001808311611cfa57829003601f168201915b50505050508152602001600282018054611d309061457d565b80601f0160208091040260200160405190810160405280929190818152602001828054611d5c9061457d565b8015611da95780601f10611d7e57610100808354040283529160200191611da9565b820191906000526020600020905b815481529060010190602001808311611d8c57829003601f168201915b50505050508152602001600382015481526020016004820154815260200160058201548152602001600682015481526020016007820154815260200160088201548152505081526020019060010190611c60565b50505050905090565b6000600560008473ffffffffffffffffffffffffffffffffffffffff1673ffffffffffffffffffffffffffffffffffffffff16815260200190815260200160002060008373ffffffffffffffffffffffffffffffffffffffff1673ffffffffffffffffffffffffffffffffffffffff16815260200190815260200160002060009054906101000a900460ff16905092915050565b600d602052806000526040600020600091509050806000015490806001018054611ec39061457d565b80601f0160208091040260200160405190810160405280929190818152602001828054611eef9061457d565b8015611f3c5780601f10611f1157610100808354040283529160200191611f3c565b820191906000526020600020905b815481529060010190602001808311611f1f57829003601f168201915b505050505090806002018054611f519061457d565b80601f0160208091040260200160405190810160405280929190818152602001828054611f7d9061457d565b8015611fca5780601f10611f9f57610100808354040283529160200191611fca565b820191906000526020600020905b815481529060010190602001808311611fad57829003601f168201915b5050505050908060030154908060040154908060050154908060060154908060070154908060080154905089565b612094848484846040516024016120129493929190613e26565b6040516020818303038152906040527f9fd009f5000000000000000000000000000000000000000000000000000000007bffffffffffffffffffffffffffffffffffffffffffffffffffffffff19166020820180517bffffffffffffffffffffffffffffffffffffffffffffffffffffffff8381831617835250505050612cc4565b50505050565b6121348383836040516024016120b293929190613f8e565b6040516020818303038152906040527f969cdd03000000000000000000000000000000000000000000000000000000007bffffffffffffffffffffffffffffffffffffffffffffffffffffffff19166020820180517bffffffffffffffffffffffffffffffffffffffffffffffffffffffff8381831617835250505050612cc4565b505050565b6121d5848484846040516024016121539493929190613e80565b6040516020818303038152906040527f8d142cdd000000000000000000000000000000000000000000000000000000007bffffffffffffffffffffffffffffffffffffffffffffffffffffffff19166020820180517bffffffffffffffffffffffffffffffffffffffffffffffffffffffff8381831617835250505050612cc4565b50505050565b612277848484846040516024016121f59493929190613eda565b6040516020818303038152906040527fd5cf17d0000000000000000000000000000000000000000000000000000000007bffffffffffffffffffffffffffffffffffffffffffffffffffffffff19166020820180517bffffffffffffffffffffffffffffffffffffffffffffffffffffffff8381831617835250505050612cc4565b50505050565b6001816000016000828254019250508190555050565b60007f01ffc9a7000000000000000000000000000000000000000000000000000000007bffffffffffffffffffffffffffffffffffffffffffffffffffffffff1916827bffffffffffffffffffffffffffffffffffffffffffffffffffffffff1916149050919050565b60008073ffffffffffffffffffffffffffffffffffffffff166002600084815260200190815260200160002060009054906101000a900473ffffffffffffffffffffffffffffffffffffffff1673ffffffffffffffffffffffffffffffffffffffff1614159050919050565b600033905090565b816004600083815260200190815260200160002060006101000a81548173ffffffffffffffffffffffffffffffffffffffff021916908373ffffffffffffffffffffffffffffffffffffffff160217905550808273ffffffffffffffffffffffffffffffffffffffff166123e483610be1565b73ffffffffffffffffffffffffffffffffffffffff167f8c5be1e5ebec7d5bd14f71427d1e84f3dd0314c0f7b2291e5b200ac8c7c3b92560405160405180910390a45050565b600081600001549050919050565b6000612443826122fd565b612482576040517f08c379a00000000000000000000000000000000000000000000000000000000081526004016124799061406c565b60405180910390fd5b600061248d83610be1565b90508073ffffffffffffffffffffffffffffffffffffffff168473ffffffffffffffffffffffffffffffffffffffff1614806124fc57508373ffffffffffffffffffffffffffffffffffffffff166124e484610727565b73ffffffffffffffffffffffffffffffffffffffff16145b8061250d575061250c8185611e06565b5b91505092915050565b8273ffffffffffffffffffffffffffffffffffffffff1661253682610be1565b73ffffffffffffffffffffffffffffffffffffffff161461258c576040517f08c379a00000000000000000000000000000000000000000000000000000000081526004016125839061414c565b60405180910390fd5b600073ffffffffffffffffffffffffffffffffffffffff168273ffffffffffffffffffffffffffffffffffffffff1614156125fc576040517f08c379a00000000000000000000000000000000000000000000000000000000081526004016125f39061402c565b60405180910390fd5b612607838383612ced565b612612600082612371565b6001600360008573ffffffffffffffffffffffffffffffffffffffff1673ffffffffffffffffffffffffffffffffffffffff16815260200190815260200160002060008282546126629190614493565b925050819055506001600360008473ffffffffffffffffffffffffffffffffffffffff1673ffffffffffffffffffffffffffffffffffffffff16815260200190815260200160002060008282546126b991906143b2565b92505081905550816002600083815260200190815260200160002060006101000a81548173ffffffffffffffffffffffffffffffffffffffff021916908373ffffffffffffffffffffffffffffffffffffffff160217905550808273ffffffffffffffffffffffffffffffffffffffff168473ffffffffffffffffffffffffffffffffffffffff167fddf252ad1be2c89b69c2b068fc378daa952ba7f163c4a11628f55a4df523b3ef60405160405180910390a4505050565b61278c828260405180602001604052806000815250612cf2565b5050565b8173ffffffffffffffffffffffffffffffffffffffff168373ffffffffffffffffffffffffffffffffffffffff1614156127ff576040517f08c379a00000000000000000000000000000000000000000000000000000000081526004016127f69061404c565b60405180910390fd5b80600560008573ffffffffffffffffffffffffffffffffffffffff1673ffffffffffffffffffffffffffffffffffffffff16815260200190815260200160002060008473ffffffffffffffffffffffffffffffffffffffff1673ffffffffffffffffffffffffffffffffffffffff16815260200190815260200160002060006101000a81548160ff0219169083151502179055508173ffffffffffffffffffffffffffffffffffffffff168373ffffffffffffffffffffffffffffffffffffffff167f17307eab39ab6107e8899845ad3d59bd9653f200f220920489ca2b5937696c31836040516128f09190613de9565b60405180910390a3505050565b612908848484612516565b61291484848484612d4d565b612953576040517f08c379a000000000000000000000000000000000000000000000000000000000815260040161294a90613fec565b60405180910390fd5b50505050565b606060008214156129a1576040518060400160405280600181526020017f30000000000000000000000000000000000000000000000000000000000000008152509050612b01565b600082905060005b600082146129d35780806129bc906145e0565b915050600a826129cc9190614408565b91506129a9565b60008167ffffffffffffffff811115612a15577f4e487b7100000000000000000000000000000000000000000000000000000000600052604160045260246000fd5b6040519080825280601f01601f191660200182016040528015612a475781602001600182028036833780820191505090505b5090505b60008514612afa57600182612a609190614493565b9150600a85612a6f9190614629565b6030612a7b91906143b2565b60f81b818381518110612ab7577f4e487b7100000000000000000000000000000000000000000000000000000000600052603260045260246000fd5b60200101907effffffffffffffffffffffffffffffffffffffffffffffffffffffffffffff1916908160001a905350600a85612af39190614408565b9450612a4b565b8093505050505b919050565b60606000825190506000811415612b2f5760405180602001604052806000815250915050612cbf565b60006003600283612b4091906143b2565b612b4a9190614408565b6004612b569190614439565b90506000602082612b6791906143b2565b67ffffffffffffffff811115612ba6577f4e487b7100000000000000000000000000000000000000000000000000000000600052604160045260246000fd5b6040519080825280601f01601f191660200182016040528015612bd85781602001600182028036833780820191505090505b5090506000604051806060016040528060408152602001614e5a604091399050600181016020830160005b86811015612c7c5760038101905062ffffff818a015116603f8160121c168401518060081b905060ff603f83600c1c1686015116810190508060081b905060ff603f8360061c1686015116810190508060081b905060ff603f831686015116810190508060e01b90508084526004840193505050612c03565b506003860660018114612c965760028114612ca657612cb1565b613d3d60f01b6002830352612cb1565b603d60f81b60018303525b508484525050819450505050505b919050565b60008151905060006a636f6e736f6c652e6c6f679050602083016000808483855afa5050505050565b505050565b612cfc8383612ee4565b612d096000848484612d4d565b612d48576040517f08c379a0000000000000000000000000000000000000000000000000000000008152600401612d3f90613fec565b60405180910390fd5b505050565b6000612d6e8473ffffffffffffffffffffffffffffffffffffffff166130b2565b15612ed7578373ffffffffffffffffffffffffffffffffffffffff1663150b7a02612d97612369565b8786866040518563ffffffff1660e01b8152600401612db99493929190613d44565b602060405180830381600087803b158015612dd357600080fd5b505af1925050508015612e0457506040513d601f19601f82011682018060405250810190612e019190613484565b60015b612e87573d8060008114612e34576040519150601f19603f3d011682016040523d82523d6000602084013e612e39565b606091505b50600081511415612e7f576040517f08c379a0000000000000000000000000000000000000000000000000000000008152600401612e7690613fec565b60405180910390fd5b805181602001fd5b63150b7a0260e01b7bffffffffffffffffffffffffffffffffffffffffffffffffffffffff1916817bffffffffffffffffffffffffffffffffffffffffffffffffffffffff191614915050612edc565b600190505b949350505050565b600073ffffffffffffffffffffffffffffffffffffffff168273ffffffffffffffffffffffffffffffffffffffff161415612f54576040517f08c379a0000000000000000000000000000000000000000000000000000000008152600401612f4b9061410c565b60405180910390fd5b612f5d816122fd565b15612f9d576040517f08c379a0000000000000000000000000000000000000000000000000000000008152600401612f949061400c565b60405180910390fd5b612fa960008383612ced565b6001600360008473ffffffffffffffffffffffffffffffffffffffff1673ffffffffffffffffffffffffffffffffffffffff1681526020019081526020016000206000828254612ff991906143b2565b92505081905550816002600083815260200190815260200160002060006101000a81548173ffffffffffffffffffffffffffffffffffffffff021916908373ffffffffffffffffffffffffffffffffffffffff160217905550808273ffffffffffffffffffffffffffffffffffffffff16600073ffffffffffffffffffffffffffffffffffffffff167fddf252ad1be2c89b69c2b068fc378daa952ba7f163c4a11628f55a4df523b3ef60405160405180910390a45050565b600080823b905060008111915050919050565b6040518060a0016040528060608152602001606081526020016000815260200160008152602001600081525090565b6040518061012001604052806000815260200160608152602001606081526020016000815260200160008152602001600081526020016000815260200160008152602001600081525090565b82805461314c9061457d565b90600052602060002090601f01602090048101928261316e57600085556131b5565b82601f1061318757805160ff19168380011785556131b5565b828001600101855582156131b5579182015b828111156131b4578251825591602001919060010190613199565b5b5090506131c291906131c6565b5090565b5b808211156131df5760008160009055506001016131c7565b5090565b60006131f66131f1846142f4565b6142cf565b90508281526020810184848401111561320e57600080fd5b61321984828561453b565b509392505050565b60008135905061323081614dfd565b92915050565b60008135905061324581614e14565b92915050565b60008135905061325a81614e2b565b92915050565b60008151905061326f81614e2b565b92915050565b600082601f83011261328657600080fd5b81356132968482602086016131e3565b91505092915050565b6000813590506132ae81614e42565b92915050565b6000602082840312156132c657600080fd5b60006132d484828501613221565b91505092915050565b600080604083850312156132f057600080fd5b60006132fe85828601613221565b925050602061330f85828601613221565b9150509250929050565b60008060006060848603121561332e57600080fd5b600061333c86828701613221565b935050602061334d86828701613221565b925050604061335e8682870161329f565b9150509250925092565b6000806000806080858703121561337e57600080fd5b600061338c87828801613221565b945050602061339d87828801613221565b93505060406133ae8782880161329f565b925050606085013567ffffffffffffffff8111156133cb57600080fd5b6133d787828801613275565b91505092959194509250565b600080604083850312156133f657600080fd5b600061340485828601613221565b925050602061341585828601613236565b9150509250929050565b6000806040838503121561343257600080fd5b600061344085828601613221565b92505060206134518582860161329f565b9150509250929050565b60006020828403121561346d57600080fd5b600061347b8482850161324b565b91505092915050565b60006020828403121561349657600080fd5b60006134a484828501613260565b91505092915050565b6000602082840312156134bf57600080fd5b60006134cd8482850161329f565b91505092915050565b60006134e28383613a64565b905092915050565b6134f3816144c7565b82525050565b600061350482614335565b61350e8185614363565b93508360208202850161352085614325565b8060005b8581101561355c578484038952815161353d85826134d6565b945061354883614356565b925060208a01995050600181019050613524565b50829750879550505050505092915050565b613577816144d9565b82525050565b600061358882614340565b6135928185614374565b93506135a281856020860161454a565b6135ab81614716565b840191505092915050565b60006135c18261434b565b6135cb8185614385565b93506135db81856020860161454a565b6135e481614716565b840191505092915050565b60006135fa8261434b565b6136048185614396565b935061361481856020860161454a565b61361d81614716565b840191505092915050565b60006136338261434b565b61363d81856143a7565b935061364d81856020860161454a565b80840191505092915050565b6000613666600b836143a7565b915061367182614727565b600b82019050919050565b6000613689603a836143a7565b915061369482614750565b603a82019050919050565b60006136ac602d83614396565b91506136b78261479f565b604082019050919050565b60006136cf603283614396565b91506136da826147ee565b604082019050919050565b60006136f2601c83614396565b91506136fd8261483d565b602082019050919050565b6000613715600e836143a7565b915061372082614866565b600e82019050919050565b60006137386027836143a7565b91506137438261488f565b602782019050919050565b600061375b602483614396565b9150613766826148de565b604082019050919050565b600061377e601983614396565b91506137898261492d565b602082019050919050565b60006137a1602c83614396565b91506137ac82614956565b604082019050919050565b60006137c4602e83614396565b91506137cf826149a5565b604082019050919050565b60006137e7603883614396565b91506137f2826149f4565b604082019050919050565b600061380a602a83614396565b915061381582614a43565b604082019050919050565b600061382d602983614396565b915061383882614a92565b604082019050919050565b60006138506004836143a7565b915061385b82614ae1565b600482019050919050565b6000613873602083614396565b915061387e82614b0a565b602082019050919050565b6000613896602c83614396565b91506138a182614b33565b604082019050919050565b60006138b9602983614396565b91506138c482614b82565b604082019050919050565b60006138dc602f836143a7565b91506138e782614bd1565b602f82019050919050565b60006138ff600a836143a7565b915061390a82614c20565b600a82019050919050565b6000613922602183614396565b915061392d82614c49565b604082019050919050565b6000613945601d836143a7565b915061395082614c98565b601d82019050919050565b6000613968602c836143a7565b915061397382614cc1565b602c82019050919050565b600061398b603183614396565b915061399682614d10565b604082019050919050565b60006139ae603d836143a7565b91506139b982614d5f565b603d82019050919050565b60006139d1602d836143a7565b91506139dc82614dae565b602d82019050919050565b600060a0830160008301518482036000860152613a0482826135b6565b91505060208301518482036020860152613a1e82826135b6565b9150506040830151613a336040860182613bfc565b506060830151613a466060860182613bfc565b506080830151613a596080860182613bfc565b508091505092915050565b600061012083016000830151613a7d6000860182613bfc565b5060208301518482036020860152613a9582826135b6565b91505060408301518482036040860152613aaf82826135b6565b9150506060830151613ac46060860182613bfc565b506080830151613ad76080860182613bfc565b5060a0830151613aea60a0860182613bfc565b5060c0830151613afd60c0860182613bfc565b5060e0830151613b1060e0860182613bfc565b50610100830151613b25610100860182613bfc565b508091505092915050565b600061012083016000830151613b496000860182613bfc565b5060208301518482036020860152613b6182826135b6565b91505060408301518482036040860152613b7b82826135b6565b9150506060830151613b906060860182613bfc565b506080830151613ba36080860182613bfc565b5060a0830151613bb660a0860182613bfc565b5060c0830151613bc960c0860182613bfc565b5060e0830151613bdc60e0860182613bfc565b50610100830151613bf1610100860182613bfc565b508091505092915050565b613c0581614531565b82525050565b613c1481614531565b82525050565b6000613c25826138f2565b9150613c31828c613628565b9150613c3c82613659565b9150613c48828b613628565b9150613c538261367c565b9150613c5f828a613628565b9150613c6a826139a1565b9150613c768289613628565b9150613c8182613708565b9150613c8d8288613628565b9150613c98826139c4565b9150613ca48287613628565b9150613caf826138cf565b9150613cbb8286613628565b9150613cc68261372b565b9150613cd28285613628565b9150613cdd8261395b565b9150613ce98284613628565b9150613cf482613843565b91508190509a9950505050505050505050565b6000613d1282613938565b9150613d1e8284613628565b915081905092915050565b6000602082019050613d3e60008301846134ea565b92915050565b6000608082019050613d5960008301876134ea565b613d6660208301866134ea565b613d736040830185613c0b565b8181036060830152613d85818461357d565b905095945050505050565b6000606082019050613da560008301866134ea565b613db26020830185613c0b565b613dbf6040830184613c0b565b949350505050565b60006020820190508181036000830152613de181846134f9565b905092915050565b6000602082019050613dfe600083018461356e565b92915050565b60006020820190508181036000830152613e1e81846135ef565b905092915050565b60006080820190508181036000830152613e4081876135ef565b90508181036020830152613e5481866135ef565b90508181036040830152613e6881856135ef565b9050613e776060830184613c0b565b95945050505050565b60006080820190508181036000830152613e9a81876135ef565b90508181036020830152613eae81866135ef565b9050613ebd6040830185613c0b565b8181036060830152613ecf81846135ef565b905095945050505050565b60006080820190508181036000830152613ef481876135ef565b90508181036020830152613f0881866135ef565b9050613f176040830185613c0b565b613f246060830184613c0b565b95945050505050565b600060a0820190508181036000830152613f4781886135ef565b90508181036020830152613f5b81876135ef565b9050613f6a6040830186613c0b565b613f776060830185613c0b565b613f846080830184613c0b565b9695505050505050565b60006060820190508181036000830152613fa881866135ef565b9050613fb76020830185613c0b565b613fc46040830184613c0b565b949350505050565b60006020820190508181036000830152613fe58161369f565b9050919050565b60006020820190508181036000830152614005816136c2565b9050919050565b60006020820190508181036000830152614025816136e5565b9050919050565b600060208201905081810360008301526140458161374e565b9050919050565b6000602082019050818103600083015261406581613771565b9050919050565b6000602082019050818103600083015261408581613794565b9050919050565b600060208201905081810360008301526140a5816137b7565b9050919050565b600060208201905081810360008301526140c5816137da565b9050919050565b600060208201905081810360008301526140e5816137fd565b9050919050565b6000602082019050818103600083015261410581613820565b9050919050565b6000602082019050818103600083015261412581613866565b9050919050565b6000602082019050818103600083015261414581613889565b9050919050565b60006020820190508181036000830152614165816138ac565b9050919050565b6000602082019050818103600083015261418581613915565b9050919050565b600060208201905081810360008301526141a58161397e565b9050919050565b600060208201905081810360008301526141c681846139e7565b905092915050565b600060208201905081810360008301526141e88184613b30565b905092915050565b60006020820190506142056000830184613c0b565b92915050565b600061012082019050614221600083018c613c0b565b8181036020830152614233818b6135ef565b90508181036040830152614247818a6135ef565b90506142566060830189613c0b565b6142636080830188613c0b565b61427060a0830187613c0b565b61427d60c0830186613c0b565b61428a60e0830185613c0b565b614298610100830184613c0b565b9a9950505050505050505050565b60006040820190506142bb6000830185613c0b565b6142c86020830184613c0b565b9392505050565b60006142d96142ea565b90506142e582826145af565b919050565b6000604051905090565b600067ffffffffffffffff82111561430f5761430e6146e7565b5b61431882614716565b9050602081019050919050565b6000819050602082019050919050565b600081519050919050565b600081519050919050565b600081519050919050565b6000602082019050919050565b600082825260208201905092915050565b600082825260208201905092915050565b600082825260208201905092915050565b600082825260208201905092915050565b600081905092915050565b60006143bd82614531565b91506143c883614531565b9250827fffffffffffffffffffffffffffffffffffffffffffffffffffffffffffffffff038211156143fd576143fc61465a565b5b828201905092915050565b600061441382614531565b915061441e83614531565b92508261442e5761442d614689565b5b828204905092915050565b600061444482614531565b915061444f83614531565b9250817fffffffffffffffffffffffffffffffffffffffffffffffffffffffffffffffff04831182151516156144885761448761465a565b5b828202905092915050565b600061449e82614531565b91506144a983614531565b9250828210156144bc576144bb61465a565b5b828203905092915050565b60006144d282614511565b9050919050565b60008115159050919050565b60007fffffffff0000000000000000000000000000000000000000000000000000000082169050919050565b600073ffffffffffffffffffffffffffffffffffffffff82169050919050565b6000819050919050565b82818337600083830152505050565b60005b8381101561456857808201518184015260208101905061454d565b83811115614577576000848401525b50505050565b6000600282049050600182168061459557607f821691505b602082108114156145a9576145a86146b8565b5b50919050565b6145b882614716565b810181811067ffffffffffffffff821117156145d7576145d66146e7565b5b80604052505050565b60006145eb82614531565b91507fffffffffffffffffffffffffffffffffffffffffffffffffffffffffffffffff82141561461e5761461d61465a565b5b600182019050919050565b600061463482614531565b915061463f83614531565b92508261464f5761464e614689565b5b828206905092915050565b7f4e487b7100000000000000000000000000000000000000000000000000000000600052601160045260246000fd5b7f4e487b7100000000000000000000000000000000000000000000000000000000600052601260045260246000fd5b7f4e487b7100000000000000000000000000000000000000000000000000000000600052602260045260246000fd5b7f4e487b7100000000000000000000000000000000000000000000000000000000600052604160045260246000fd5b6000601f19601f8301169050919050565b7f202d2d204e465420233a20000000000000000000000000000000000000000000600082015250565b7f222c20226465736372697074696f6e223a20225468652057697463686572205760008201527f696c642048756e74204e465421222c2022696d616765223a2022000000000000602082015250565b7f4572726f723a20626f7373206d757374206861766520485020746f206174746160008201527f636b2074686520706c6179657200000000000000000000000000000000000000602082015250565b7f4552433732313a207472616e7366657220746f206e6f6e20455243373231526560008201527f63656976657220696d706c656d656e7465720000000000000000000000000000602082015250565b7f4552433732313a20746f6b656e20616c7265616479206d696e74656400000000600082015250565b7f2c20226d61785f76616c7565223a000000000000000000000000000000000000600082015250565b7f7d2c207b202274726169745f74797065223a2022446566656e6365222c20227660008201527f616c7565223a2000000000000000000000000000000000000000000000000000602082015250565b7f4552433732313a207472616e7366657220746f20746865207a65726f2061646460008201527f7265737300000000000000000000000000000000000000000000000000000000602082015250565b7f4552433732313a20617070726f766520746f2063616c6c657200000000000000600082015250565b7f4552433732313a206f70657261746f7220717565727920666f72206e6f6e657860008201527f697374656e7420746f6b656e0000000000000000000000000000000000000000602082015250565b7f4572726f72203a20706c61796572206d757374206861766520485020746f206160008201527f747461636b2074686520626f7373000000000000000000000000000000000000602082015250565b7f4552433732313a20617070726f76652063616c6c6572206973206e6f74206f7760008201527f6e6572206e6f7220617070726f76656420666f7220616c6c0000000000000000602082015250565b7f4552433732313a2062616c616e636520717565727920666f7220746865207a6560008201527f726f206164647265737300000000000000000000000000000000000000000000602082015250565b7f4552433732313a206f776e657220717565727920666f72206e6f6e657869737460008201527f656e7420746f6b656e0000000000000000000000000000000000000000000000602082015250565b7f7d205d7d00000000000000000000000000000000000000000000000000000000600082015250565b7f4552433732313a206d696e7420746f20746865207a65726f2061646472657373600082015250565b7f4552433732313a20617070726f76656420717565727920666f72206e6f6e657860008201527f697374656e7420746f6b656e0000000000000000000000000000000000000000602082015250565b7f4552433732313a207472616e73666572206f6620746f6b656e2074686174206960008201527f73206e6f74206f776e0000000000000000000000000000000000000000000000602082015250565b7f7d2c207b202274726169745f74797065223a2022437269746963616c2043686160008201527f6e6365222c202276616c7565223a200000000000000000000000000000000000602082015250565b7f7b226e616d65223a202200000000000000000000000000000000000000000000600082015250565b7f4552433732313a20617070726f76616c20746f2063757272656e74206f776e6560008201527f7200000000000000000000000000000000000000000000000000000000000000602082015250565b7f646174613a6170706c69636174696f6e2f6a736f6e3b6261736536342c000000600082015250565b7f7d2c207b202274726169745f74797065223a20224d61676963616c204d616e6160008201527f222c202276616c7565223a200000000000000000000000000000000000000000602082015250565b7f4552433732313a207472616e736665722063616c6c6572206973206e6f74206f60008201527f776e6572206e6f7220617070726f766564000000000000000000000000000000602082015250565b7f222c202261747472696275746573223a205b207b202274726169745f7479706560008201527f223a20224865616c746820506f696e7473222c202276616c7565223a20000000602082015250565b7f7d2c207b202274726169745f74797065223a202241747461636b2044616d616760008201527f65222c202276616c7565223a2000000000000000000000000000000000000000602082015250565b614e06816144c7565b8114614e1157600080fd5b50565b614e1d816144d9565b8114614e2857600080fd5b50565b614e34816144e5565b8114614e3f57600080fd5b50565b614e4b81614531565b8114614e5657600080fd5b5056fe4142434445464748494a4b4c4d4e4f505152535455565758595a6162636465666768696a6b6c6d6e6f707172737475767778797a303132333435363738392b2f0a706c61796572207769746820636861726163687465722025732061626f757420746f2061747461636b206861766520257320485020616e642025732041444d696e74696e672043686172204e465420772f20746f6b656e496420257320616e642043686172496e646578202573a2646970667358221220b3da24d8faf20caa6edf851d149a87e64899a5b30c860e8853798fac7238ff2e64736f6c63430008040033446f6e6520696e697469616c697a696e67204368617220257320772f2048502025732c20696d67202573646f6e6520696e697469616c697a696e672074686520626f737320257320772f20696d61676520257320616e64206870202573446f6e6520696e697469616c697a696e67204368617220257320772f20646566656e73652025732c206d616e61202573446f6e6520696e697469616c697a696e67204368617220257320772f2c2061747461636b44616d6167652025732c206372697469634368616e6365202573",
  "linkReferences": {},
  "deployedLinkReferences": {}
}